:020000040000FA
:100000000C9462000C948A000C948A000C948A0070
:100010000C948A000C948A000C948A000C948A0038
:100020000C948A000C948A000C948A000C948A0028
:100030000C948A000C948A000C948A000C948A0018
:100040000C9462050C948A000C9430050C940A05FB
:100050000C948A000C948A000C948A000C948A00F8
:100060000C948A000C948A000000000024002700F1
:100070002A0000000000250028002B0000000000DE
:1000800023002600290004040404040404040202DA
:100090000202020203030303030301020408102007
:1000A0004080010204081020010204081020000012
:1000B0000008000201000003040700000000000027
:1000C0000000AC0511241FBECFEFD8E0DEBFCDBFCE
:1000D00024E0A2E7B1E001C01D92AA3AB207E1F71D
:1000E00011E0A0E0B1E0E2E3F6E102C005900D927C
:1000F000A237B107D9F710E0C2E6D0E004C02197DB
:10010000FE010E94110BC136D107C9F70E945006AB
:100110000C94170B0C9400004F925F926F927F9299
:100120008F929F92AF92BF92CF92DF92EF92FF9207
:100130000F931F9340919C0450919D044F5F5F4F1C
:1001400060E0C12CD12C760188248A94982CA82CAC
:10015000B12C80E090E0DC01262F30E042175307FD
:100160008CF1220F331F220F331FF901ED5DFB4F7E
:100170004384548465847684481459046A047B0457
:1001800024F483849484A584B684F901ED5DFB4F47
:100190004384548465847684C414D504E604F70447
:1001A00024F4C384D484E584F6842D5D3B4FF901A7
:1001B0000385148525853685800F911FA21FB31FE7
:1001C0006F5FCACF88199909AA09BB09BC01CD0183
:1001D0006C197D098E099F0920918A0404C09595A8
:1001E0008795779567952A95D2F71F910F91FF9084
:1001F000EF90DF90CF90BF90AF909F908F907F90C7
:100200006F905F904F900895AF92BF92CF92DF9220
:10021000EF92FF920F931F93CF93DF936C017B01BB
:100220008B01040F151FEB015E01AE18BF08C0174C
:10023000D10759F06991D601ED91FC910190F081BF
:10024000E02DC6010995892B79F7C501DF91CF9182
:100250001F910F91FF90EF90DF90CF90BF90AF90E4
:100260000895FC01538D448D252F30E0842F90E0BC
:10027000821B930B541710F0CF96089501970895A1
:10028000FC01918D828D981761F0A28DAE0FBF2F6A
:10029000B11D5D968C91928D9F5F9F73928F90E0C0
:1002A00008958FEF9FEF0895FC01918D828D98172F
:1002B00031F0828DE80FF11D858D90E008958FEF6C
:1002C0009FEF0895FC01918D228D892F90E0805C35
:1002D0009F4F821B91098F739927089586E893E0B9
:1002E0000E94620121E0892B09F420E0822F089509
:1002F00080E090E0892B29F00E946E0181110C941E
:1003000000000895FC01A48DA80FB92FB11DA35AB8
:10031000BF4F2C91848D90E001968F739927848F25
:10032000A689B7892C93A089B1898C918370806448
:100330008C93938D848D981306C00288F389E02DE9
:1003400080818F7D80830895EF92FF920F931F939A
:10035000CF93DF93EC0181E0888F9B8D8C8D981378
:100360001AC0E889F989808185FF15C09FB7F89484
:10037000EE89FF896083E889F989808183708064D0
:1003800080839FBF81E090E0DF91CF911F910F911B
:10039000FF90EF900895F62E0B8D10E00F5F1F4F2A
:1003A0000F731127E02E8C8D8E110CC00FB607FC39
:1003B000FACFE889F989808185FFF5CFCE010E94C7
:1003C0008201F1CFEB8DEC0FFD2FF11DE35AFF4FB2
:1003D000F0829FB7F8940B8FEA89FB898081806255
:1003E000CFCFCF93DF93EC01888D8823B9F0AA8912
:1003F000BB89E889F9898C9185FD03C0808186FDE0
:100400000DC00FB607FCF7CF8C9185FFF2CF80812E
:1004100085FFEDCFCE010E948201E9CFDF91CF9120
:100420000895833081F028F4813099F08230A9F06A
:1004300008958730A9F08830C9F08430B1F48091F4
:1004400080008F7D03C0809180008F778093800033
:10045000089584B58F7784BD089584B58F7DFBCFD3
:100460008091B0008F778093B00008958091B000A4
:100470008F7DF9CFCF93DF93282F30E0F901E2553C
:10048000FF4F8491F901E656FF4FD491F901EA57E5
:10049000FF4FC491CC23A1F081110E941102EC2FD7
:1004A000F0E0EE0FFF1FE458FF4FA591B491EC91DF
:1004B000ED2381E090E009F480E0DF91CF91089591
:1004C00080E090E0FACF1F93CF93DF93282F30E0A6
:1004D000F901E255FF4F8491F901E656FF4FD4919F
:1004E000F901EA57FF4FC491CC23A9F0162F8111CF
:1004F0000E941102EC2FF0E0EE0FFF1FEE58FF4FAD
:10050000A591B4918FB7F894EC91111108C0D095D2
:10051000DE23DC938FBFDF91CF911F910895DE2BF7
:10052000F8CFCF93DF9390E0FC01E656FF4F249184
:100530008A579F4FFC0184918823D1F090E0880F67
:10054000991FFC01E859FF4FA591B491FC01EE58A9
:10055000FF4FC591D49161110EC09FB7F8948C9153
:10056000E22FE0958E238C932881E223E8839FBFBE
:10057000DF91CF9108958FB7F894EC91E22BEC9333
:100580008FBFF6CF3FB7F8948091770190917801B3
:10059000A0917901B0917A0126B5A89B05C02F3FA3
:1005A00019F00196A11DB11D3FBFBA2FA92F982F99
:1005B0008827BC01CD01620F711D811D911D42E094
:1005C000660F771F881F991F4A95D1F708952FB797
:1005D000F89460917301709174018091750190910C
:1005E00076012FBF0895CF92DF92EF92FF92CF93C3
:1005F000809124040E943A028111C6C00E94C20266
:10060000C0908004D0908104E0908204F090830434
:100610006C197D098E099F09609384047093850489
:1006200080938604909387040E94C20260938004A2
:1006300070938104809382049093830410929604B3
:10064000C0E0C12CD12C76018091250490E0479622
:10065000C817190609F0BCF461E0809123040E94D8
:10066000630260E0809123040E946302C83148F471
:10067000809124040E943A02CC0CDD1CEE1CFF1C6D
:10068000C82ACF5FE1CF80E8E826C114D104E10495
:1006900091E0F90618F021E02093A2042091A8042B
:1006A000222361F04FEF5FEF6FEF70E0DB01CA01D3
:1006B0008C199D09AE09BF096C017D0120917E0452
:1006C00030917F0440919C0450919D044F5F5F4F97
:1006D00024173507D9F510927F0410927E04C114B7
:1006E000D104E104F104F1F0209196042F5F2093EE
:1006F0009604E0917E04F0917F04EE0FFF1FEE0F51
:10070000FF1FED5DFB4FC386D486E586F68680919C
:100710008C04882339F0809189048231F0F48F5F52
:10072000809389040E94E7026093A3047093A40459
:100730008093A5049093A6041092A7048091960438
:10074000CF91FF90EF90DF90CF9008952F5F3F4FB4
:1007500030937F0420937E04C2CF0E948C0060936C
:100760007A0470937B0480937C0490937D041092B0
:10077000890410928C0481E0809397048091960400
:100780008F5F80939604CECF0E94E702C090A304AF
:10079000D090A404E090A504F090A6046C197D0903
:1007A0008E099F09653671058105910518F081E074
:1007B0008093A70410929604C1CFFC010190002001
:1007C000E9F73197AF01481B590BBC0186E893E06C
:1007D0000C9404018F929F92AF92BF920F931F933C
:1007E000CF93DF93CDB7DEB7A1970FB6F894DEBFF6
:1007F0000FBECDBF19A2423008F44AE08E010F5D52
:100800001F4F842E912CB12CA12CA50194010E9484
:10081000EF0AE62FB901CA01EA30F4F4E05DD8012D
:10082000EE938D01232B242B252B79F790E080E08C
:10083000109719F0CD010E94DD03A1960FB6F89430
:10084000DEBF0FBECDBFDF91CF911F910F91BF9043
:10085000AF909F908F900895E95CE1CF4F925F92A7
:100860006F927F928F929F92AF92BF92CF92DF92C0
:10087000EF92FF920F931F93CF936B017C01742E25
:10088000AC019B010E94EA0A882399F082E191E081
:10089000CF911F910F91FF90EF90DF90CF90BF907D
:1008A000AF909F908F907F906F905F904F900C943F
:1008B000DD0346015701E894B7F82FEF3FEF4FE70C
:1008C0005FE7C501B4010E94EA0A81110DC02FEF54
:1008D0003FEF4FE75FE7C501B4010E94B308181668
:1008E0001CF486E191E0D4CF2FEF3FEF4FE75FE4B8
:1008F000C701B6010E94E50A18161CF48AE191E0CE
:10090000C7CF2FEF3FEF4FE75FECC701B6010E9463
:10091000B30887FDF3CF20E030E0A901C701B6019D
:100920000E94B30810E000E087FF0AC06DE286E88D
:1009300093E00E94A4018C01F7FAF094F7F8F09488
:10094000C0E060E070E080E09FE37C1641F020E0D2
:1009500030E040E251E40E94440ACF5FF6CFA701A5
:1009600096010E94D8092B013C010E94B60A4B0156
:100970005C014AE00E94EA037C01E00EF11ECC23F8
:10098000C1F1C501B4010E94B8089B01AC01C301CB
:10099000B2010E94D7094B015C016EE286E893E048
:1009A0000E94A401E80EF91EC15018F120E030E0C9
:1009B00040E251E4C501B4010E9419092B013C0138
:1009C0000E94B60A4B01B12CA12C4AE0C501B4012A
:1009D0000E94EA03E80EF91EC501B4010E94B8089E
:1009E0009B01AC01C301B2010E94D7094B015C011C
:1009F000DBCFC701CF911F910F91FF90EF90DF9058
:100A0000CF90BF90AF909F908F907F906F905F90AE
:100A10004F9008951F920F920FB60F9211242F93AB
:100A20003F934F935F936F937F938F939F93AF9376
:100A3000BF93EF93FF9386E893E00E948201FF91BA
:100A4000EF91BF91AF919F918F917F916F915F9146
:100A50004F913F912F910F900FBE0F901F901895BF
:100A60001F920F920FB60F9211242F938F939F9383
:100A7000EF93FF93E0919603F09197038081E091CB
:100A80009C03F0919D0382FD1BC0908180919F0388
:100A90008F5F8F732091A003821741F0E0919F0335
:100AA000F0E0EA57FC4F958F80939F03FF91EF9101
:100AB0009F918F912F910F900FBE0F901F901895BF
:100AC0008081F4CF1F920F920FB60F9211242F93B3
:100AD0003F938F939F93AF93BF93809173019091B6
:100AE0007401A0917501B09176013091720123E0FB
:100AF000230F2D3758F50196A11DB11D20937201CA
:100B00008093730190937401A0937501B093760163
:100B10008091770190917801A0917901B0917A014B
:100B20000196A11DB11D8093770190937801A09348
:100B30007901B0937A01BF91AF919F918F913F91CD
:100B40002F910F900FBE0F901F90189526E8230F3E
:100B50000296A11DB11DD2CFE6E8F3E01382128206
:100B600088EE93E0A0E0B0E084839583A683B7830A
:100B700084E091E09183808385EC90E09587848781
:100B800084EC90E09787868780EC90E0918B808B57
:100B900081EC90E0938B828B82EC90E0958B848B40
:100BA00086EC90E0978B868B118E128E138E148EAE
:100BB000E3E2F4E080E090E0A0E8BFE38383948385
:100BC000A583B68387839087A187B28710927A0422
:100BD00010927B0410927C0410927D0410927F048A
:100BE00010927E041092800410928104109282046C
:100BF000109283041092840410928504109286044B
:100C00001092870481E0809388041092890484E024
:100C100080938A0480938B0410928C0410928D042C
:100C200010928E0410928F041092900410929104EE
:100C300010929204109293041092940410929504CE
:100C400010929604109297042CE83AE0309399049D
:100C50002093980410929A0410929B0420E130E0B3
:100C600030939D0420939C0410929E0410929F0444
:100C70001092A0041092A1041092A2041092A30456
:100C80001092A4041092A5041092A6041092A70436
:100C90001092A8041092A904818385E080830895AE
:100CA000789484B5826084BD84B5816084BD85B547
:100CB000826085BD85B5816085BD80916E00816053
:100CC00080936E00109281008091810082608093F9
:100CD00081008091810081608093810080918000FB
:100CE0008160809380008091B10084608093B10026
:100CF0008091B00081608093B00080917A00846020
:100D000080937A0080917A00826080937A0080914B
:100D10007A00816080937A0080917A008068809365
:100D20007A001092C10060E088E00E94910261E0C8
:100D30008BE00E94910261E08CE00E94910261E0F0
:100D40008DE00E949102E0919603F091970382E07A
:100D50008083E0919203F09193031082E0919403D9
:100D6000F09195038FEC808310929E03E0919A039B
:100D7000F0919B0386E08083E0919803F0919903C2
:100D8000808180618083E0919803F0919903808154
:100D900088608083E0919803F09199038081806856
:100DA0008083E0919803F091990380818F7D808307
:100DB00061E0809123040E94910260E0809124040C
:100DC0000E94910281E08093250460E080912304D9
:100DD0000E9463028AE59BEDACE0B7E480932604B1
:100DE00090932704A0932804B093290484E292EA04
:100DF000A8EEB7E380932A0490932B04A0932C04CD
:100E0000B0932D048CEB99E1A1E8B0E080937A04D3
:100E100090937B04A0937C04B0937D0480E0E82E43
:100E200080E0F82E7724739490E8C92ED12C0E948C
:100E3000F30281117092850380918503882309F460
:100E4000FCC00E94E702AB01BC018091810390913C
:100E50008203A0918303B09184038053984FAF4FD6
:100E6000BF4F84179507A607B70708F0E6C00E9492
:100E70008C0060939E0470939F048093A0049093D1
:100E8000A10400917A0410917B0420917C0430919C
:100E90007D04601B710B820B930B0E94BA0820919A
:100EA0002A0430912B0440912C0450912D040E946F
:100EB00019094B015C018EE191E00E94DD0342E0E3
:100EC000C501B4010E942E0485E391E00E94DD0378
:100ED00080917B0194E0899FF0011124E258FE4F3C
:100EE00080829182A282B3828F5F80937B01209166
:100EF0007F03309180032F5F3F4F30938003209317
:100F00007F0387FD10927B012138310558F0D09284
:100F10008003C0927F0380917E038F5F87FDB6C000
:100F200080937E0320E030E040EA50E4C501B40144
:100F30000E94D70920E030E048EC52E40E941909F1
:100F400020E030E040E751E40E94440A4B015C019C
:100F500000917C0110917D0120E030E0A9010E9408
:100F6000B308D0E0C0E087FFE80120E030E0A9014D
:100F7000C501B4010E94E50A87FD0CC020E030E005
:100F80004CE052E4C501B4010E94B30887FF02C0DF
:100F9000CBE0D0E020E030E04CE052E4C501B40109
:100FA0000E94E50A87FD0CC020E030E042E852E4F0
:100FB000C501B4010E94B30887FF02C0CCE0D0E0B5
:100FC00020E030E042E852E4C501B4010E94E50AA5
:100FD00087FD02C0CDE0D0E00C171D0789F0011598
:100FE000110521F060E0802F0E946302209721F01C
:100FF00061E08C2F0E946302D0937D01C0937C013D
:1010000088E391E00E94DD0342E0C501B4010E9443
:101010002E0483E591E00E94DD0385E391E00E94C8
:10102000DD03109285030E94E702609381037093B1
:101030008203809383039093840388E00E943A02A2
:10104000892B09F04CC070928C0410928904109284
:101050009A040E94E70220919804309199044B0170
:101060005C01820E931EA11CB11C0E94F302C82FCA
:1010700080919B0481110DC00E94E702861697069D
:10108000A806B90630F470929A0405C010927E0347
:1010900049CFC23051F785E591E00E94DD03809091
:1010A0007A0490907B04A0907C04B0907D044AE088
:1010B000C501B401B7FE0DC06DE286E893E00E9461
:1010C000A40166277727CB01681979098A099B094A
:1010D0004AE00E94EA0385E391E00E94DD0386E88E
:1010E00093E00E946201181619068CF586E893E0D9
:1010F0000E944001823759F520917F03309180038F
:101100002115310501F140917E0384E0489FF001F3
:101110001124E258FE4F60817181828193814F5F7B
:1011200040937E03215031093093800320937F0345
:1011300047FD10927E0342E00E942E0481E591E07B
:101140000E94DD03D9CF85E391E00E94DD03E11425
:10115000F10409F46CCE0E946E01882309F467CE75
:101160000E94000064CE0E94F50808F481E0089512
:10117000E89409C097FB3EF4909580957095619531
:101180007F4F8F4F9F4F9923A9F0F92F96E9BB27E7
:101190009395F695879577956795B795F111F8CF63
:1011A000FAF4BB0F11F460FF1BC06F5F7F4F8F4FCE
:1011B0009F4F16C0882311F096E911C0772321F0C4
:1011C0009EE8872F762F05C0662371F096E8862F5C
:1011D00070E060E02AF09A95660F771F881FDAF7B3
:1011E000880F9695879597F90895990F0008550FE0
:1011F000AA0BE0E8FEEF16161706E807F907C0F09D
:1012000012161306E407F50798F0621B730B840BA4
:10121000950B39F40A2661F0232B242B252B21F47E
:1012200008950A2609F4A140A6958FEF811D811D1E
:1012300008950E942C090C949D090E948F0938F092
:101240000E94960920F0952311F00C9486090C94C5
:101250008C0911240C94D1090E94AE0970F3959F5A
:10126000C1F3950F50E0551F629FF001729FBB279D
:10127000F00DB11D639FAA27F00DB11DAA1F649F39
:101280006627B00DA11D661F829F2227B00DA11DEC
:10129000621F739FB00DA11D621F839FA00D611D72
:1012A000221F749F3327A00D611D231F849F600D93
:1012B000211D822F762F6A2F11249F5750409AF0BC
:1012C000F1F088234AF0EE0FFF1FBB1F661F771F48
:1012D000881F91505040A9F79E3F510580F00C9413
:1012E00086090C94D1095F3FE4F3983ED4F38695C8
:1012F00077956795B795F795E7959F5FC1F7FE2BB3
:10130000880F911D9695879597F9089597F99F678E
:1013100080E870E060E008959FEF80EC089500247D
:101320000A941616170618060906089500240A944A
:1013300012161306140605060895092E0394000CD0
:1013400011F4882352F0BB0F40F4BF2B11F460FF5F
:1013500004C06F5F7F4F8F4F9F4F089557FD905888
:10136000440F551F59F05F3F71F04795880F97FB69
:10137000991F61F09F3F79F0879508951216130623
:101380001406551FF2CF4695F1DF08C01616170652
:101390001806991FF1CF8695710561050894089587
:1013A000E894BB2766277727CB0197F90895505813
:1013B000BB27AA270E94EF090C949D090E948F0960
:1013C00038F00E94960920F039F49F3F19F426F472
:1013D0000C948C090EF4E095E7FB0C948609E92F38
:1013E0000E94AE0958F3BA1762077307840795077E
:1013F00020F079F4A6F50C94D0090EF4E0950B2EAC
:10140000BA2FA02D0B01B90190010C01CA01A00156
:101410001124FF27591B99F0593F50F4503E68F1B1
:101420001A16F040A22F232F342F4427585FF3CFF2
:10143000469537952795A795F0405395C9F77EF4C3
:101440001F16BA0B620B730B840BBAF09150A1F00C
:10145000FF0FBB1F661F771F881FC2F70EC0BA0F92
:10146000621F731F841F48F4879577956795B7951A
:10147000F7959E3F08F0B0CF9395880F08F0992715
:10148000EE0F9795879508950E94580A0C949D0930
:101490000E94960958F00E948F0940F029F45F3F9E
:1014A00029F00C94860951110C94D1090C948C09E3
:1014B0000E94AE0968F39923B1F3552391F3951B6C
:1014C000550BBB27AA2762177307840738F09F5F65
:1014D0005F4F220F331F441FAA1FA9F335D00E2ED2
:1014E0003AF0E0E832D091505040E695001CCAF73F
:1014F0002BD0FE2F29D0660F771F881FBB1F261702
:1015000037074807AB07B0E809F0BB0B802DBF01D8
:10151000FF2793585F4F3AF09E3F510578F00C94A7
:1015200086090C94D1095F3FE4F3983ED4F3869585
:1015300077956795B795F7959F5FC9F7880F911DC8
:101540009695879597F90895E1E0660F771F881FB4
:10155000BB1F621773078407BA0720F0621B730B67
:10156000840BBA0BEE1F88F7E09508950E94B60928
:1015700088F09F5798F0B92F9927B751B0F0E1F054
:10158000660F771F881F991F1AF0BA95C9F714C004
:10159000B13091F00E94D009B1E008950C94D009C7
:1015A000672F782F8827B85F39F0B93FCCF386953D
:1015B00077956795B395D9F73EF49095809570959A
:1015C00061957F4F8F4F9F4F08950E94F50808F453
:1015D0008FEF08950E94F508880B990B0895A1E2FA
:1015E0001A2EAA1BBB1BFD010DC0AA1FBB1FEE1F9D
:1015F000FF1FA217B307E407F50720F0A21BB30BE8
:10160000E40BF50B661F771F881F991F1A9469F763
:1016100060957095809590959B01AC01BD01CF01BF
:101620000895EE0FFF1F0590F491E02D0994F894B2
:10163000FFCF00000000A40104013101F1016201AB
:10164000400154016E616E00696E66006F7666003F
:101650004C6F61645F63656C6C206F75747075743A
:101660002076616C3A20000D0A0052656D61696E4A
:10167000696E67206761732070657263656E74615F
:1016800067653A200025005461726520636F6D70B4
:101690006C6574652E2054617265206F6666736593
:0416A000743A200078
:107E0000112484B714BE81FFF0D085E080938100F7
:107E100082E08093C00088E18093C10086E0809377
:107E2000C20080E18093C4008EE0C9D0259A86E02C
:107E300020E33CEF91E0309385002093840096BBD3
:107E4000B09BFECF1D9AA8958150A9F7CC24DD24C4
:107E500088248394B5E0AB2EA1E19A2EF3E0BF2EE7
:107E6000A2D0813461F49FD0082FAFD0023811F036
:107E7000013811F484E001C083E08DD089C08234E0
:107E800011F484E103C0853419F485E0A6D080C0E4
:107E9000853579F488D0E82EFF2485D0082F10E0AE
:107EA000102F00270E291F29000F111F8ED06801E7
:107EB0006FC0863521F484E090D080E0DECF843638
:107EC00009F040C070D06FD0082F6DD080E0C81688
:107ED00080E7D80618F4F601B7BEE895C0E0D1E017
:107EE00062D089930C17E1F7F0E0CF16F0E7DF06D8
:107EF00018F0F601B7BEE89568D007B600FCFDCFD4
:107F0000A601A0E0B1E02C9130E011968C91119780
:107F100090E0982F8827822B932B1296FA010C0160
:107F200087BEE89511244E5F5F4FF1E0A038BF0790
:107F300051F7F601A7BEE89507B600FCFDCF97BE46
:107F4000E89526C08437B1F42ED02DD0F82E2BD052
:107F50003CD0F601EF2C8F010F5F1F4F84911BD097
:107F6000EA94F801C1F70894C11CD11CFA94CF0C13
:107F7000D11C0EC0853739F428D08EE10CD085E9AC
:107F80000AD08FE07ACF813511F488E018D01DD067
:107F900080E101D065CF982F8091C00085FFFCCF94
:107FA0009093C60008958091C00087FFFCCF809118
:107FB000C00084FD01C0A8958091C6000895E0E648
:107FC000F0E098E1908380830895EDDF803219F02E
:107FD00088E0F5DFFFCF84E1DECF1F93182FE3DFCA
:107FE0001150E9F7F2DF1F91089580E0E8DFEE27F6
:047FF000FF270994CA
:027FFE00040479
:00000001FF
