:020000040000FA
:100000000C9462000C948A000C948A000C948A0070
:100010000C948A000C948A000C948A000C948A0038
:100020000C948A000C948A000C948A000C948A0028
:100030000C948A000C948A000C948A000C948A0018
:100040000C9463040C948A000C9431040C940B04FB
:100050000C948A000C948A000C948A000C948A00F8
:100060000C948A000C948A000000000023002600F3
:10007000290000000008000201000003040700003E
:1000800000000000000000000000250028002B00F8
:1000900000000000240027002A00040404040404D3
:1000A0000404020202020202030303030303010227
:1000B00004081020408001020408102001020408F6
:1000C0001020AD0411241FBECFEFD8E0DEBFCDBF9E
:1000D00011E0A0E0B1E0EAE7F3E102C005900D9283
:1000E000AC39B107D9F722E0ACE9B1E001C01D920B
:1000F000AE3CB207E1F710E0C2E6D0E004C02197C1
:10010000FE010E94B509C136D107C9F70E94510509
:100110000C94BB090C9400004F925F926F927F92F7
:100120008F929F92AF92BF92CF92DF92EF92FF9207
:100130000F931F934091C0025091C1024F5F5F4FD8
:1001400060E0C12CD12C760188248A94982CA82CAC
:10015000B12C80E090E0DC01262F30E042175307FD
:100160008CF1220F331F220F331FF901E95BFD4F82
:100170004384548465847684481459046A047B0457
:1001800024F483849484A584B684F901E95BFD4F4B
:100190004384548465847684C414D504E604F70447
:1001A00024F4C384D484E584F684295B3D4FF901AB
:1001B0000385148525853685800F911FA21FB31FE7
:1001C0006F5FCACF88199909AA09BB09BC01CD0183
:1001D0006C197D098E099F092091AE0204C0959586
:1001E0008795779567952A95D2F71F910F91FF9084
:1001F000EF90DF90CF90BF90AF909F908F907F90C7
:100200006F905F904F900895AF92BF92CF92DF9220
:10021000EF92FF920F931F93CF93DF936C017B01BB
:100220008B01040F151FEB015E01AE18BF08C0174C
:10023000D10759F06991D601ED91FC910190F081BF
:10024000E02DC6010995892B79F7C501DF91CF9182
:100250001F910F91FF90EF90DF90CF90BF90AF90E4
:100260000895FC01538D448D252F30E0842F90E0BC
:10027000821B930B541710F0CF96089501970895A1
:10028000FC01918D828D981761F0A28DAE0FBF2F6A
:10029000B11D5D968C91928D9F5F9F73928F90E0C0
:1002A00008958FEF9FEF0895FC01918D828D98172F
:1002B00031F0828DE80FF11D858D90E008958FEF6C
:1002C0009FEF0895FC01918D228D892F90E0805C35
:1002D0009F4F821B91098F73992708958AEA91E0B5
:1002E0000E94620121E0892B09F420E0822F089509
:1002F00080E090E0892B29F00E946E0181110C941E
:1003000000000895FC01A48DA80FB92FB11DA35AB8
:10031000BF4F2C91848D90E001968F739927848F25
:10032000A689B7892C93A089B1898C918370806448
:100330008C93938D848D981306C00288F389E02DE9
:1003400080818F7D80830895EF92FF920F931F939A
:10035000CF93DF93EC0181E0888F9B8D8C8D981378
:100360001AC0E889F989808185FF15C09FB7F89484
:10037000EE89FF896083E889F989808183708064D0
:1003800080839FBF81E090E0DF91CF911F910F911B
:10039000FF90EF900895F62E0B8D10E00F5F1F4F2A
:1003A0000F731127E02E8C8D8E110CC00FB607FC39
:1003B000FACFE889F989808185FFF5CFCE010E94C7
:1003C0008201F1CFEB8DEC0FFD2FF11DE35AFF4FB2
:1003D000F0829FB7F8940B8FEA89FB898081806255
:1003E000CFCFCF93DF93EC01888D8823B9F0AA8912
:1003F000BB89E889F9898C9185FD03C0808186FDE0
:100400000DC00FB607FCF7CF8C9185FFF2CF80812E
:1004100085FFEDCFCE010E948201E9CFDF91CF9120
:100420000895833081F028F4813099F08230A9F06A
:1004300008958730A9F08830C9F08430B1F48091F4
:1004400080008F7D03C0809180008F778093800033
:10045000089584B58F7784BD089584B58F7DFBCFD3
:100460008091B0008F778093B00008958091B000A4
:100470008F7DF9CFCF93DF93282F30E0F901EE582D
:10048000FF4F8491F901E255FF4FD491F901E656EF
:10049000FF4FC491CC23A1F081110E941102EC2FD7
:1004A000F0E0EE0FFF1FE859FF4FA591B491EC91DA
:1004B000ED2381E090E009F480E0DF91CF91089591
:1004C00080E090E0FACF1F93CF93DF93282F30E0A6
:1004D000F901EE58FF4F8491F901E255FF4FD49195
:1004E000F901E656FF4FC491CC23A9F0162F8111D4
:1004F0000E941102EC2FF0E0EE0FFF1FEA57FF4FB2
:10050000A591B4918FB7F894EC91111108C0D095D2
:10051000DE23DC938FBFDF91CF911F910895DE2BF7
:10052000F8CF3FB7F8948091A1019091A201A091DA
:10053000A301B091A40126B5A89B05C02F3F19F0D7
:100540000196A11DB11D3FBFBA2FA92F982F882753
:10055000BC01CD01620F711D811D911D42E0660F2E
:10056000771F881F991F4A95D1F708952FB7F894E0
:1005700060919D0170919E0180919F019091A001D9
:100580002FBF0895CF92DF92EF92FF92CF93809189
:1005900048020E943A028111C6C00E949102C09096
:1005A000A402D090A502E090A602F090A7026C19D8
:1005B0007D098E099F096093A8027093A902809318
:1005C000AA029093AB020E9491026093A4027093DE
:1005D000A5028093A6029093A7021092BA02C0E0EF
:1005E000C12CD12C76018091490290E04796C81722
:1005F000190609F0BCF461E0809147020E94630291
:1006000060E0809147020E946302C83148F4809103
:1006100048020E943A02CC0CDD1CEE1CFF1CC82ACA
:10062000CF5FE1CF80E8E826C114D104E10491E076
:10063000F90618F021E02093C6022091CC02222373
:1006400061F04FEF5FEF6FEF70E0DB01CA018C19D3
:100650009D09AE09BF096C017D012091A202309174
:10066000A3024091C0025091C1024F5F5F4F241717
:100670003507D9F51092A3021092A202C114D10439
:10068000E104F104F1F02091BA022F5F2093BA0245
:10069000E091A202F091A302EE0FFF1FEE0FFF1FE9
:1006A000E95BFD4FC386D486E586F6868091B0026D
:1006B000882339F08091AD028231F0F48F5F80930E
:1006C000AD020E94B6026093C7027093C802809385
:1006D000C9029093CA021092CB028091BA02CF91C4
:1006E000FF90EF90DF90CF9008952F5F3F4F3093B2
:1006F000A3022093A202C2CF0E948C0060939E02AC
:1007000070939F028093A0029093A1021092AD0279
:100710001092B00281E08093BB028091BA028F5F99
:100720008093BA02CECF0E94B602C090C702D0908A
:10073000C802E090C902F090CA026C197D098E09C6
:100740009F09653671058105910518F081E0809358
:10075000CB021092BA02C1CFFC0101900020E9F750
:100760003197AF01481B590BBC018AEA91E00C9408
:1007700004018F929F92AF92BF920F931F93CF93DA
:10078000DF93CDB7DEB7A1970FB6F894DEBF0FBEEB
:10079000CDBF19A2423008F44AE08E010F5D1F4F11
:1007A000842E912CB12CA12CA50194010E949309B7
:1007B000E62FB901CA01EA30F4F4E05DD801EE9306
:1007C0008D01232B242B252B79F790E080E01097C7
:1007D00019F0CD010E94AC03A1960FB6F894DEBFCC
:1007E0000FBECDBFDF91CF911F910F91BF90AF9002
:1007F0009F908F900895E95CE1CFCF93DF930E94A3
:10080000AC03EC0182E191E00E94AC038C0F9D1FD0
:10081000DF91CF9108951F920F920FB60F9211247E
:100820002F933F934F935F936F937F938F939F93F8
:10083000AF93BF93EF93FF938AEA91E00E94820106
:10084000FF91EF91BF91AF919F918F917F916F91A8
:100850005F914F913F912F910F900FBE0F901F907E
:1008600018951F920F920FB60F9211242F938F930A
:100870009F93EF93FF93E091BA01F091BB018081C8
:10088000E091C001F091C10182FD1BC09081809177
:10089000C3018F5F8F732091C401821741F0E091F3
:1008A000C301F0E0E655FE4F958F8093C301FF91A1
:1008B000EF919F918F912F910F900FBE0F901F90EE
:1008C00018958081F4CF1F920F920FB60F921124CA
:1008D0002F933F938F939F93AF93BF9380919D01ED
:1008E00090919E01A0919F01B091A00130919C0137
:1008F00023E0230F2D3758F50196A11DB11D20933C
:100900009C0180939D0190939E01A0939F01B093C1
:10091000A0018091A1019091A201A091A301B091A9
:10092000A4010196A11DB11D8093A1019093A20184
:10093000A093A301B093A401BF91AF919F918F9118
:100940003F912F910F900FBE0F901F90189526E8A2
:10095000230F0296A11DB11DD2CFEAEAF1E0138266
:10096000128288EE93E0A0E0B0E084839583A683B2
:10097000B78384E091E09183808385EC90E0958754
:10098000848784EC90E09787868780EC90E0918B59
:10099000808B81EC90E0938B828B82EC90E0958B46
:1009A000848B86EC90E0978B868B118E128E138E43
:1009B000148EE7E4F2E080E090E0A0E8BFE38383F8
:1009C0009483A583B68387839087A187B28710928B
:1009D0009E0210929F021092A0021092A102109209
:1009E000A3021092A2021092A4021092A5021092E9
:1009F000A6021092A7021092A8021092A9021092C9
:100A0000AA021092AB0281E08093AC021092AD0278
:100A100084E08093AE028093AF021092B0021092F5
:100A2000B1021092B2021092B3021092B40210926C
:100A3000B5021092B6021092B7021092B80210924C
:100A4000B9021092BA021092BB022CE83AE030933D
:100A5000BD022093BC021092BE021092BF0220E1A0
:100A600030E03093C1022093C0021092C202109273
:100A7000C3021092C4021092C5021092C6021092D4
:100A8000C7021092C8021092C9021092CA021092B4
:100A9000CB021092CC021092CD02818385E080833C
:100AA0000895789484B5826084BD84B5816084BDE6
:100AB00085B5826085BD85B5816085BD80916E00FC
:100AC000816080936E00109281008091810082602D
:100AD000809381008091810081608093810080916A
:100AE00080008160809380008091B1008460809359
:100AF000B1008091B00081608093B00080917A0055
:100B0000846080937A0080917A00826080937A007A
:100B100080917A00816080937A0080917A00806869
:100B200080937A001092C100E091BA01F091BB016C
:100B300082E08083E091B601F091B7011082E091EC
:100B4000B801F091B9018FEC80831092C201E0915D
:100B5000BE01F091BF0186E08083E091BC01F0917D
:100B6000BD01808180618083E091BC01F091BD0175
:100B7000808188608083E091BC01F091BD0180811B
:100B800080688083E091BC01F091BD0180818F7D00
:100B900080830E9491024B015C015AE0C52ED12C4A
:100BA000E12CF12C0E949102681979098A099B09AC
:100BB000683E734081059105A8F321E0C21AD1086F
:100BC000E108F10888EE880E83E0981EA11CB11C94
:100BD000C114D104E104F10429F782E191E00E94FB
:100BE000AC0385E191E00E94FD038091470290E013
:100BF000FC01E255FF4F249186569F4FFC018491E2
:100C0000882399F090E0880F991FFC01E057FF4F6F
:100C1000A591B491FC01EA57FF4F859194918FB74C
:100C2000F894EC91E22BEC938FBF8091480290E016
:100C3000FC01E255FF4F249186569F4FFC018491A1
:100C40008823C1F090E0880F991FFC01E057FF4F07
:100C5000C591D491FC01EA57FF4FA591B4919FB77C
:100C6000F8948881E22FE0958E2388838C91E82385
:100C7000EC939FBF81E08093490260E0809147023E
:100C80000E9463020E94B6026093C7027093C8027A
:100C90008093C9029093CA020E94B60260367940DE
:100CA0008105910518F40E94C202F6CF81E080937D
:100CB000B0021092AD021092BE020E94B6022091C4
:100CC000BC023091BD026B017C01C20ED31EE11C3F
:100CD000F11C0E94C202C82F8091BF0281110BC07B
:100CE0000E94B602C616D706E806F90620F481E08F
:100CF0008093BE0202C0C23061F71092BB028091A5
:100D0000BE02882329F081E291E00E94FD03FFCF1B
:100D10008AE59BEDACE0B7E480934A0290934B02E6
:100D2000A0934C02B0934D0284E292EAA8EEB7E39E
:100D300080934E0290934F02A0935002B0935102C1
:100D400086E591E00E94FD03C0E0D0E011E00E9442
:100D5000C20281111093A9018091A901882309F48D
:100D60005CC00E94B602AB01BC018091A5019091CC
:100D7000A601A091A701B091A80188519C4FAF4F47
:100D8000BF4F84179507A607B70708F046C00E9413
:100D90008C006093C2027093C3028093C40290934C
:100DA000C502C0909E02D0909F02E090A002F090F9
:100DB000A1026C197D098E099F090E946C0820917F
:100DC0004E0230914F0240915002509151020E94C8
:100DD00021096B017C014B015C018AE691E00E94D4
:100DE000AC03A7019601C701B6010E948E098823B2
:100DF000E1F181E891E00E94AC0382E191E00E9480
:100E0000AC031092A9010E94B6026093A5017093F1
:100E1000A6018093A7019093A8018AEA91E00E941D
:100E200062011816190664F48AEA91E00E944001F2
:100E3000843731F41093B0021092AD021092BB02CD
:100E40008091BB021092BB02882321F08DE891E0D3
:100E50000E94FD03209709F47ACF0E946E01882337
:100E600009F475CF0E94000072CF26013701E89483
:100E700077F82FEF3FEF4FE75FE7C301B2010E9422
:100E80008E0981110DC02FEF3FEF4FE75FE7C301E0
:100E9000B2010E94360818161CF485E891E0ABCF29
:100EA0002FEF3FEF4FE75FE4C701B6010E941C0937
:100EB00018161CF489E891E09ECF2FEF3FEF4FE723
:100EC0005FECC701B6010E94360887FDF3CF20E032
:100ED00030E0A901C701B6010E94360887FF0BC0A8
:100EE0006DE28AEA91E00E94A40146015701B7FA37
:100EF000B094B7F8B0942AE037ED43EA5BE3C5015C
:100F0000B4010E94CA074B015C010E943B086B01BF
:100F10007C010E946A089B01AC01C501B4010E94DA
:100F2000C9074B015C014AE0C701B6010E94B90341
:100F30006EE28AEA91E00E94A40120E030E040E203
:100F400051E4C501B4010E9421094B015C010E94DA
:100F50003B086B01F12CE12C4AE0C701B6010E946D
:100F6000B903C701B6010E946A089B01AC01C50123
:100F7000B4010E94C90720E030E040E251E40E9441
:100F800021090E943B0890E080E04AE00E94B903FA
:100F900034CF5058BB27AA270E94E1070C94E208DF
:100FA0000E94D40838F00E94DB0820F039F49F3FFB
:100FB00019F426F40C94D1080EF4E095E7FB0C9498
:100FC000CB08E92F0E94F30858F3BA17620773079A
:100FD0008407950720F079F4A6F50C9415090EF412
:100FE000E0950B2EBA2FA02D0B01B90190010C0139
:100FF000CA01A0011124FF27591B99F0593F50F451
:10100000503E68F11A16F040A22F232F342F4427A8
:10101000585FF3CF469537952795A795F0405395A0
:10102000C9F77EF41F16BA0B620B730B840BBAF070
:101030009150A1F0FF0FBB1F661F771F881FC2F7DB
:101040000EC0BA0F621F731F841F48F487957795EF
:101050006795B795F7959E3F08F0B0CF9395880FA9
:1010600008F09927EE0F9795879508950E94A70895
:1010700008F481E008950E94FB0888F09F5798F0DB
:10108000B92F9927B751B0F0E1F0660F771F881F8D
:10109000991F1AF0BA95C9F714C0B13091F00E94A7
:1010A0001509B1E008950C941509672F782F88274A
:1010B000B85F39F0B93FCCF3869577956795B395CE
:1010C000D9F73EF490958095709561957F4F8F4F3D
:1010D0009F4F0895E89409C097FB3EF49095809542
:1010E000709561957F4F8F4F9F4F9923A9F0F92FEE
:1010F00096E9BB279395F695879577956795B7956C
:10110000F111F8CFFAF4BB0F11F460FF1BC06F5F51
:101110007F4F8F4F9F4F16C0882311F096E911C063
:10112000772321F09EE8872F762F05C0662371F084
:1011300096E8862F70E060E02AF09A95660F771F98
:10114000881FDAF7880F9695879597F90895990F74
:101150000008550FAA0BE0E8FEEF16161706E80781
:10116000F907C0F012161306E407F50798F0621BA2
:10117000730B840B950B39F40A2661F0232B242B77
:10118000252B21F408950A2609F4A140A6958FEF96
:10119000811D811D089597F99F6780E870E060E0E8
:1011A00008959FEF80EC089500240A941616170600
:1011B00018060906089500240A9412161306140648
:1011C00005060895092E0394000C11F4882352F0AB
:1011D000BB0F40F4BF2B11F460FF04C06F5F7F4F63
:1011E0008F4F9F4F089557FD9058440F551F59F04A
:1011F0005F3F71F04795880F97FB991F61F09F3F04
:1012000079F087950895121613061406551FF2CF2C
:101210004695F1DF08C0161617061806991FF1CF7C
:1012200086957105610508940895E894BB276627A3
:101230007727CB0197F908950E94A70808F48FEF4C
:1012400008950E9434090C94E2080E94D40838F0F2
:101250000E94DB0820F0952311F00C94CB080C942D
:10126000D10811240C9416090E94F30870F3959F7D
:10127000C1F3950F50E0551F629FF001729FBB278D
:10128000F00DB11D639FAA27F00DB11DAA1F649F29
:101290006627B00DA11D661F829F2227B00DA11DDC
:1012A000621F739FB00DA11D621F839FA00D611D62
:1012B000221F749F3327A00D611D231F849F600D83
:1012C000211D822F762F6A2F11249F5750409AF0AC
:1012D000F1F088234AF0EE0FFF1FBB1F661F771F38
:1012E000881F91505040A9F79E3F510580F00C9403
:1012F000CB080C9416095F3FE4F3983ED4F386952F
:1013000077956795B795F795E7959F5FC1F7FE2BA2
:10131000880F911D9695879597F908950E94A708C3
:10132000880B990B0895A1E21A2EAA1BBB1BFD0185
:101330000DC0AA1FBB1FEE1FFF1FA217B307E407B4
:10134000F50720F0A21BB30BE40BF50B661F771F0C
:10135000881F991F1A9469F76095709580959095EC
:101360009B01AC01BD01CF010895EE0FFF1F059059
:10137000F491E02D0994F894FFCF00000000A4013F
:1013800004013101F1016201400154010D0A0053D1
:1013900074617274696E672E2E2E0054696D656FCC
:1013A00075742C20636865636B204D43553E485827
:1013B00037313120776972696E6720616E64207001
:1013C000696E2064657369676E6174696F6E73001E
:1013D0005374617274757020697320636F6D706CE3
:1013E000657465004C6F61645F63656C6C206F753C
:1013F000747075742076616C3A20006E616E0069BD
:101400006E66006F7666005461726520636F6D7062
:061410006C65746500002C
:107E0000112484B714BE81FFF0D085E080938100F7
:107E100082E08093C00088E18093C10086E0809377
:107E2000C20080E18093C4008EE0C9D0259A86E02C
:107E300020E33CEF91E0309385002093840096BBD3
:107E4000B09BFECF1D9AA8958150A9F7CC24DD24C4
:107E500088248394B5E0AB2EA1E19A2EF3E0BF2EE7
:107E6000A2D0813461F49FD0082FAFD0023811F036
:107E7000013811F484E001C083E08DD089C08234E0
:107E800011F484E103C0853419F485E0A6D080C0E4
:107E9000853579F488D0E82EFF2485D0082F10E0AE
:107EA000102F00270E291F29000F111F8ED06801E7
:107EB0006FC0863521F484E090D080E0DECF843638
:107EC00009F040C070D06FD0082F6DD080E0C81688
:107ED00080E7D80618F4F601B7BEE895C0E0D1E017
:107EE00062D089930C17E1F7F0E0CF16F0E7DF06D8
:107EF00018F0F601B7BEE89568D007B600FCFDCFD4
:107F0000A601A0E0B1E02C9130E011968C91119780
:107F100090E0982F8827822B932B1296FA010C0160
:107F200087BEE89511244E5F5F4FF1E0A038BF0790
:107F300051F7F601A7BEE89507B600FCFDCF97BE46
:107F4000E89526C08437B1F42ED02DD0F82E2BD052
:107F50003CD0F601EF2C8F010F5F1F4F84911BD097
:107F6000EA94F801C1F70894C11CD11CFA94CF0C13
:107F7000D11C0EC0853739F428D08EE10CD085E9AC
:107F80000AD08FE07ACF813511F488E018D01DD067
:107F900080E101D065CF982F8091C00085FFFCCF94
:107FA0009093C60008958091C00087FFFCCF809118
:107FB000C00084FD01C0A8958091C6000895E0E648
:107FC000F0E098E1908380830895EDDF803219F02E
:107FD00088E0F5DFFFCF84E1DECF1F93182FE3DFCA
:107FE0001150E9F7F2DF1F91089580E0E8DFEE27F6
:047FF000FF270994CA
:027FFE00040479
:00000001FF
