:100000000C9463000C948B000C948B000C941008DF
:100010000C9410080C9410080C948B000C948B001A
:100020000C948B000C948B000C948B000C948B0024
:100030000C948B000C948B000C948B000C948B0014
:100040000C94C6070C948B000C9494070C946E07C8
:100050000C948B000C948B000C948B000C948B00F4
:100060000C948B000C948B000000000024002700EF
:100070002A0000000008000201000003040700003D
:1000800000000000000000000000230026002900FE
:1000900000000000250028002B00040404040404D0
:1000A0000404020202020202030303030303010227
:1000B00004081020408001020408102001020408F6
:1000C000102088083A0D11241FBECFEFD8E0DEBF04
:1000D000CDBF25E0A6E5B2E001C01D92A13FB20769
:1000E000E1F712E0A0E0B1E0E2E1F0E202C0059049
:1000F0000D92A635B107D9F710E0C2E6D0E004C0F2
:100100002197FE010E94F60FC136D107C9F70E9460
:10011000B2090C94FC0F0C9400004F925F926F9206
:100120007F928F929F92AF92BF92CF92DF92EF9287
:10013000FF920F931F934091C4055091C5054F5FE7
:100140005F4F60E0C12CD12C760188248A94982CD2
:10015000A82CB12C80E090E0DC01262F30E0421783
:1001600053078CF1220F331F220F331FF901E55B78
:10017000FA4F4384548465847684481459046A048D
:100180007B0424F483849484A584B684F901E55B1C
:10019000FA4F4384548465847684C414D504E604F9
:1001A000F70424F4C384D484E584F684255B3A4FB1
:1001B000F9010385148525853685800F911FA21FBF
:1001C000B31F6F5FCACF88199909AA09BB09BC017F
:1001D000CD016C197D098E099F092091B20504C0DB
:1001E00095958795779567952A95D2F71F910F91E9
:1001F000FF90EF90DF90CF90BF90AF909F908F9047
:100200007F906F905F904F9008950F931F930E947F
:100210008D006093C6057093C7058093C8059093C1
:10022000C9050091A2051091A3052091A405309164
:10023000A505601B710B820B930B0E945D0D209135
:1002400052053091530540915405509155050E9437
:10025000BC0D1F910F910895AF92BF92CF92DF9284
:10026000EF92FF920F931F93CF93DF936C017B016B
:100270008B01040F151FEB015E01AE18BF08C017FC
:10028000D10759F06991D601ED91FC910190F0816F
:10029000E02DC6010995892B79F7C501DF91CF9132
:1002A0001F910F91FF90EF90DF90CF90BF90AF9094
:1002B0000895FC01538D448D252F30E0842F90E06C
:1002C000821B930B541710F0CF9608950197089551
:1002D000FC01918D828D981761F0A28DAE0FBF2F1A
:1002E000B11D5D968C91928D9F5F9F73928F90E070
:1002F00008958FEF9FEF0895FC01918D828D9817DF
:1003000031F0828DE80FF11D858D90E008958FEF1B
:100310009FEF0895FC01918D228D892F90E0805CE4
:100320009F4F821B91098F73992708958EEA94E05D
:100330000E948A0121E0892B09F420E0822F089590
:1003400080E090E0892B29F00E94960181110C94A5
:1003500000000895FC01A48DA80FB92FB11DA35A68
:10036000BF4F2C91848D90E001968F739927848FD5
:10037000A689B7892C93A089B1898C9183708064F8
:100380008C93938D848D981306C00288F389E02D99
:1003900080818F7D80830895EF92FF920F931F934A
:1003A000CF93DF93EC0181E0888F9B8D8C8D981328
:1003B0001AC0E889F989808185FF15C09FB7F89434
:1003C000EE89FF896083E889F98980818370806480
:1003D00080839FBF81E090E0DF91CF911F910F91CB
:1003E000FF90EF900895F62E0B8D10E00F5F1F4FDA
:1003F0000F731127E02E8C8D8E110CC00FB607FCE9
:10040000FACFE889F989808185FFF5CFCE010E9476
:10041000AA01F1CFEB8DEC0FFD2FF11DE35AFF4F39
:10042000F0829FB7F8940B8FEA89FB898081806204
:10043000CFCFCF93DF93EC01888D8823B9F0AA89C1
:10044000BB89E889F9898C9185FD03C0808186FD8F
:100450000DC00FB607FCF7CF8C9185FFF2CF8081DE
:1004600085FFEDCFCE010E94AA01E9CFDF91CF91A8
:100470000895833081F028F4813099F08230A9F01A
:1004800008958730A9F08830C9F08430B1F48091A4
:1004900080008F7D03C0809180008F7780938000E3
:1004A000089584B58F7784BD089584B58F7DFBCF83
:1004B0008091B0008F778093B00008958091B00054
:1004C0008F7DF9CFCF93DF93282F30E0F901EE58DD
:1004D000FF4F8491F901E255FF4FD491F901E6569F
:1004E000FF4FC491CC23A1F081110E943902EC2F5F
:1004F000F0E0EE0FFF1FEA57FF4FA591B491EC918A
:10050000ED2381E090E009F480E0DF91CF91089540
:1005100080E090E0FACF1F93CF93DF93282F30E055
:10052000F901EE58FF4F8491F901E255FF4FD49144
:10053000F901E656FF4FC491CC23A9F0162F811183
:100540000E943902EC2FF0E0EE0FFF1FE057FF4F43
:10055000A591B4918FB7F894EC91111108C0D09582
:10056000DE23DC938FBFDF91CF911F910895DE2BA7
:10057000F8CFCF93DF9390E0FC01E255FF4F249139
:1005800086569F4FFC0184918823D1F090E0880F1C
:10059000991FFC01E859FF4FA591B491FC01E05768
:1005A000FF4FC591D49161110EC09FB7F8948C9103
:1005B000E22FE0958E238C932881E223E8839FBF6E
:1005C000DF91CF9108958FB7F894EC91E22BEC93E3
:1005D0008FBFF6CF3FB7F89480919B0290919C0219
:1005E000A0919D02B0919E0226B5A89B05C02F3F09
:1005F00019F00196A11DB11D3FBFBA2FA92F982F49
:100600008827BC01CD01620F711D811D911D42E043
:10061000660F771F881F991F4A95D1F708952FB746
:10062000F89460919702709198028091990290914C
:100630009A022FBF0895CF92DF92EF92FF92CF934D
:1006400080914C050E9462028111C6C00E94EA029C
:10065000C090A805D090A905E090AA05F090AB0540
:100660006C197D098E099F096093AC057093AD05E7
:100670008093AE059093AF050E94EA026093A805AF
:100680007093A9058093AA059093AB051092BE05BF
:10069000C0E0C12CD12C760180914D0590E04796A9
:1006A000C817190609F0BCF461E080914B050E945F
:1006B0008B0260E080914B050E948B02C83148F4A8
:1006C00080914C050E946202CC0CDD1CEE1CFF1CCC
:1006D000C82ACF5FE1CF80E8E826C114D104E10445
:1006E00091E0F90618F021E02093CA052091D00589
:1006F000222361F04FEF5FEF6FEF70E0DB01CA0183
:100700008C199D09AE09BF096C017D012091A605D8
:100710003091A7054091C4055091C5054F5F5F4FCB
:1007200024173507D9F51092A7051092A605C11414
:10073000D104E104F104F1F02091BE052F5F209374
:10074000BE05E091A605F091A705EE0FFF1FEE0F85
:10075000FF1FE55BFA4FC386D486E586F686809157
:10076000B405882339F08091B1058231F0F48F5FB0
:100770008093B1050E940F036093CB057093CC0565
:100780008093CD059093CE051092CF058091BE0544
:10079000CF91FF90EF90DF90CF9008952F5F3F4F64
:1007A0003093A7052093A605C2CF0E948D006093C9
:1007B000A2057093A3058093A4059093A5051092BC
:1007C000B1051092B40581E08093BF058091BE050C
:1007D0008F5F8093BE05CECF0E940F03C090CB05E4
:1007E000D090CC05E090CD05F090CE056C197D0938
:1007F0008E099F09653671058105910518F081E024
:100800008093CF051092BE05C1CFCF92DF92EF92B9
:10081000FF92CF9381E08093B4051092B1051092BE
:10082000C2050E940F032091C0053091C1056B01E4
:100830007C01C20ED31EE11CF11C0E941B03C82FB9
:100840008091C30581110BC00E940F03C616D70605
:10085000E806F90620F481E08093C20502C0C230A8
:1008600061F7CF91FF90EF90DF90CF9008950F93B5
:100870001F93CF93DF93EC010E940F036887798762
:100880008A879B87E881F9810484F585E02DCE0174
:10089000099597FF15C00E940F03088519852A85C1
:1008A0003B85601B710B820B930B0C811D812E818C
:1008B0003F81601771078207930720F38FEF9FEF47
:1008C000DF91CF911F910F9108954F925F926F9298
:1008D0007F92AF92BF92CF92DF92EF92FF920F93EF
:1008E0001F93CF93DF938C01C8010E943704EC0162
:1008F00097FD98C0D801ED91FC910284F385E02D1D
:100900008D32910509F052C0412C512C80E8682E9F
:100910008FE3782EC12CD12C7601B12CA12CC130C3
:10092000D10559F1CD32D10509F44BC0CE32D105F4
:1009300009F44AC0CE01C0970A97F8F4AAE0B0E0E3
:10094000A70196010E947A0E6E01DD0FEE08FF08E6
:10095000C60ED71EE81EF91EB0E3CB1AD108E10877
:10096000F108BB2051F02DEC3CEC4CEC5DE3C301F5
:10097000B2010E94BC0D2B013C01D801ED91FC910C
:100980000284F385E02DC8010995C8010E9437044F
:10099000EC01C0970A9718F2CE32D105C1F4BB2002
:1009A00009F4BDCFBA2CA11018C025C0C0970A9772
:1009B00008F4AACFCE32D10509F4A6CFC801099513
:1009C00093CFAA24A394D9CFBB24B394D6CFC1305C
:1009D000D10509F4A4CFAA2041F0F094E094D0947A
:1009E000C094C11CD11CE11CF11CC701B6010E94BE
:1009F0005D0DBB2041F0C701B6010E945D0DA30152
:100A000092010E94BC0DDF91CF911F910F91FF9039
:100A1000EF90DF90CF90BF90AF907F906F905F90FE
:100A20004F90089560E070E0CB01EDCF2091A102DE
:100A30003091A2022817390771F490919F0280919A
:100A4000A002981741F0E0919F02F0E0EA5AFD4FB2
:100A5000808190E008958FEF9FEF08950895EF92C1
:100A6000FF920F931F93CF93DF93DC015C96ED9081
:100A7000FC905D97E114F10479F481E090E0139625
:100A80009C938E93129790E080E0DF91CF911F911D
:100A90000F91FF90EF9008955196ED91FC91529730
:100AA00050968C915097982F90950FB75E962C91F9
:100AB0005E97122F127021FD6095F894208111230A
:100AC00019F1282B2083E7012197F1F728E0462F21
:100AD00050E0308160FF1AC0382B3083E701219746
:100AE000F1F7BA0175956795215089F7112381F0C7
:100AF0008081892380830FBF5C968D919C910197A3
:100B0000F1F781E090E0C1CF2923DCCF3923E5CF95
:100B10009081892BEFCF2091A1023091A20228175A
:100B2000390771F48091A00220919F0290E0805CCF
:100B30009F4F821B910960E470E00E94AC0F089502
:100B400090E080E008952091A1023091A202281740
:100B50003907B9F490919F028091A002981789F00B
:100B6000E0919F02F0E0EA5AFD4F808120919F02C0
:100B700030E02F5F3F4F2F73332720939F0290E089
:100B800008958FEF9FEF089590E080E00895FB01B6
:100B900001900020E9F73197AF01461B570BDC01AC
:100BA000ED91FC910280F381E02D09948F929F9248
:100BB000AF92BF92EF92FF920F931F93CF93DF9369
:100BC000CDB7DEB7A1970FB6F894DEBF0FBECDBF8D
:100BD0007C01FA01CB0119A2223008F42AE08E012F
:100BE0000F5D1F4F822E912CB12CA12CBF01A501AE
:100BF00094010E94C00FF901CA016A300CF5605DD2
:100C0000D8016E938D01232B242B252B79F790E0AF
:100C100080E0109721F0BD01C7010E94C705A19691
:100C20000FB6F894DEBF0FBECDBFDF91CF911F91FD
:100C30000F91FF90EF90BF90AF909F908F9008958D
:100C4000695CDECFCF93DF93BC018EEA94E00E9413
:100C5000C705EC0160E371E08EEA94E00E94C705ED
:100C60008C0F9D1FDF91CF910895CF92DF92EF926D
:100C7000FF92CF93DF936B017C01F7FE23C06DE2FF
:100C80008EEA94E00E94CC01EC0144275527BA017A
:100C90004C195D096E097F092AE08EEA94E00E94F2
:100CA000D605C80FD91F60E371E08EEA94E00E9478
:100CB000C7058C0F9D1FDF91CF91FF90EF90DF90C4
:100CC000CF9008952AE0BC01A6018EEA94E00E942C
:100CD000D605EC01E8CF2F923F924F925F926F9230
:100CE0007F928F929F92AF92BF92CF92DF92EF92BC
:100CF000FF921F93CF93DF93EC016A017B01722E69
:100D0000AB019601CB01B6010E94A70F63E371E02E
:100D1000811126C046015701E894B7F82FEF3FEF45
:100D20004FE75FE7C501B4010E94A70F81110CC016
:100D30002FEF3FEF4FE75FE7C501B4010E94560D6B
:100D400067E371E0181664F02FEF3FEF4FE75FE4C1
:100D5000C701B6010E94A20F1816B4F46BE371E04C
:100D6000CE01DF91CF911F91FF90EF90DF90CF9058
:100D7000BF90AF909F908F907F906F905F904F90BB
:100D80003F902F900C94C7052FEF3FEF4FE75FEC9C
:100D9000C701B6010E94560D87FDE0CF20E030E08C
:100DA000A901C701B6010E94560D312C212C87FFE5
:100DB0000DC0E881F9810190F081E02D6DE2CE0156
:100DC00009951C01F7FAF094F7F8F09410E060E050
:100DD00070E080E09FE3711641F020E030E040E2F7
:100DE00051E40E94010F1F5FF6CFA70196010E94F8
:100DF000950E2B013C010E94730F4B015C012AE010
:100E0000BC01A401CE010E94D6057C01E20CF31CBA
:100E10001123E1F1C501B4010E945B0D9B01AC01FE
:100E2000C301B2010E94940E4B015C01E881F9817B
:100E30000190F081E02D6EE2CE010995E80EF91ED9
:100E4000115020F120E030E040E251E4C501B4014E
:100E50000E94BC0D2B013C010E94730F4B01B12C71
:100E6000A12C2AE0B501A401CE010E94D605E80E0E
:100E7000F91EC501B4010E945B0D9B01AC01C301C9
:100E8000B2010E94940E4B015C01DACFC701DF91E1
:100E9000CF911F91FF90EF90DF90CF90BF90AF90D8
:100EA0009F908F907F906F905F904F903F902F908A
:100EB0000895CF93DF93AB01BC0122E08EEA94E06A
:100EC0000E946B06EC0160E371E08EEA94E00E9400
:100ED000C7058C0F9D1FDF91CF9108951F920F9230
:100EE0000FB60F9211242F933F934F935F936F93FD
:100EF0007F938F939F93AF93BF93EF93FF938EEA6C
:100F000094E00E94AA01FF91EF91BF91AF919F9150
:100F10008F917F916F915F914F913F912F910F90A2
:100F20000FBE0F901F9018951F920F920FB60F9241
:100F300011242F938F939F93EF93FF93E091BE041F
:100F4000F091BF048081E091C404F091C50482FD5A
:100F50001BC090818091C7048F5F8F732091C8045C
:100F6000821741F0E091C704F0E0E255FB4F958F06
:100F70008093C704FF91EF919F918F912F910F90D4
:100F80000FBE0F901F9018958081F4CF1F920F9283
:100F90000FB60F9211242F933F938F939F93AF938C
:100FA000BF938091970290919802A0919902B0917D
:100FB0009A023091960223E0230F2D3758F50196BF
:100FC000A11DB11D209396028093970290939802E1
:100FD000A0939902B0939A0280919B0290919C02F7
:100FE000A0919D02B0919E020196A11DB11D80931A
:100FF0009B0290939C02A0939D02B0939E02BF918E
:10100000AF919F918F913F912F910F900FBE0F90B5
:101010001F90189526E8230F0296A11DB11DD2CF6F
:101020001F920F920FB60F9211242F933F934F935D
:101030005F936F937F938F939F93AF93BF93EF9340
:10104000FF93E091A102F091A202309749F0A685AA
:10105000B7858585968D91FF14C09C918923A1F455
:10106000FF91EF91BF91AF919F918F917F916F9180
:101070005F914F913F912F910F900FBE0F901F9056
:1010800018959C91892361F7A389B4899C918589DE
:10109000809589238C93868997890197F1F7608DD4
:1010A000718DA685B785558538E020E0CB01019785
:1010B000F1F7822F90E095958795282F4C91452345
:1010C00009F02068315091F7868D81FD209580913F
:1010D000A00290E001968F73992730919F023817F4
:1010E00099F0A091A002B0E0AA5ABD4F2C93809332
:1010F000A002828D938D0197F1F7A389B4898C9119
:101100009589892B8C93ACCF868D8160868FF1CFAA
:101110001092B1041092B00488EE93E0A0E0B0E029
:101120008093B2049093B304A093B404B093B50435
:1011300020E131E03093AF042093AE0425EC30E0A1
:101140003093BB042093BA0424EC30E03093BD0408
:101150002093BC0420EC30E03093BF042093BE0405
:1011600021EC30E03093C1042093C00422EC30E045
:101170003093C3042093C20426EC30E03093C504BE
:101180002093C4041092C7041092C8041092C9049A
:101190001092CA041092D5051092D4058093D605FA
:1011A0009093D705A093D805B093D90582E291E03A
:1011B0009093D3058093D2051092E9051092E8052B
:1011C0001092EB051092EA051092ED051092EC05D5
:1011D0001092EF051092EE056091F0056E7F6D7F25
:1011E0006093F0056695617081E0682782E00E9457
:1011F0008B0261E082E00E94B902E0EBF0E0E49152
:10120000E093E205ECE9F0E0E491F0E0EE0FFF1F7F
:10121000E057FF4F859194919093E4058093E30507
:1012200060E083E00E94B9028091F00581FD04C076
:1012300061E083E00E948B0283E08093DE05E1EBB6
:10124000F0E0E491E093DF05EDE9F0E0E491F0E017
:10125000EE0FFF1FEA57FF4F859194919093E105A0
:101260008093E00580E090E0A0E8BFE380934E0526
:1012700090934F05A0935005B0935105809352056C
:1012800090935305A0935405B09355051092A20571
:101290001092A3051092A4051092A5051092A7051F
:1012A0001092A6051092A8051092A9051092AA0501
:1012B0001092AB051092AC051092AD051092AE05E0
:1012C0001092AF0581E08093B0051092B10584E0E3
:1012D0008093B2058093B3051092B4051092B505C2
:1012E0001092B6051092B7051092B8051092B90584
:1012F0001092BA051092BB051092BC051092BD0564
:101300001092BE051092BF052CE83AE03093C1055B
:101310002093C0051092C2051092C30520E130E071
:101320003093C5052093C4051092C6051092C705D9
:101330001092C8051092C9051092CA051092CB05EB
:101340001092CC051092CD051092CE051092CF05CB
:101350001092D0051092D10580934C0585E08093C2
:101360004B050895789484B5826084BD84B581600E
:1013700084BD85B5826085BD85B5816085BD809160
:101380006E00816080936E001092810080918100D8
:1013900082608093810080918100816080938100D0
:1013A000809180008160809380008091B100846092
:1013B0008093B1008091B00081608093B0008091F3
:1013C0007A00846080937A0080917A0082608093B2
:1013D0007A0080917A00816080937A0080917A000F
:1013E000806880937A001092C10060E088E00E94DB
:1013F000B90261E08BE00E94B90261E08CE00E94DA
:10140000B90261E08DE00E94B902E091BE04F09162
:10141000BF0482E08083E091BA04F091BB041082A3
:10142000E091BC04F091BD048FEC80831092C6045F
:10143000E091C204F091C30486E08083E091C0048F
:10144000F091C104808180618083E091C004F091BB
:10145000C104808188608083E091C004F091C10460
:10146000808180688083E091C004F091C104808114
:101470008F7D80831092ED051092EC051092EB05A4
:101480001092EA051092E9051092E8058DE991E0C5
:101490009093EF058093EE059091DE05963108F06C
:1014A00047C02DEB30E03093E9052093E8052BE9A8
:1014B00031E03093EB052093EA052CE231E03093E4
:1014C000ED052093EC052091680084E0983048F009
:1014D00031E09E3008F430E081E001C0880F3A9599
:1014E000EAF7822B809368002DE630E0983050F0C8
:1014F0002BE630E09E3030F02CE630E0963110F0F4
:1015000030E020E03093E6052093E505292F30E018
:10151000983008F0ABC081E001C0880F9A95EAF7D7
:101520008093E7058091EE059091EF050197F1F723
:101530008091EC059091ED05892B49F1E091A10294
:10154000F091A20285E0E23DF80709F1309739F009
:10155000A389B4899C918589809589238C938091F6
:10156000F0058E7F8093F0051092A00210929F02EA
:1015700082ED95E09093A2028093A102E091E505AF
:10158000F091E60580819091E705892B808361E0E9
:1015900080914B050E94B90260E080914C050E9449
:1015A000B90281E080934D0560E080914B050E9477
:1015B0008B028FE391E00E9422068EEA94E00E9463
:1015C0008A0118161906CCF78EEA94E00E94680189
:1015D000843799F70E94050462E671E08EEA94E090
:1015E0000E94C7056091A2057091A3058091A40592
:1015F0009091A5050E9435068FE791E00E94220692
:101600008EEA94E00E948A0118161906CCF78EEA39
:1016100094E00E9465046B017C0120E030E0A901A8
:101620000E94560D882361F360EB71E08EEA94E02E
:101630000E94C705C701B6010E945907C091C405A1
:10164000D091C50522961092A7051092A6051C16EA
:101650001D06CCF40E941B0380914C050E9462027F
:10166000892BA9F70E9405012197F1CF9E3040F404
:101670002850310981E001C0880F2A95EAF750CF40
:101680002E503109F7CF0E94050120914E0530916F
:101690004F0540915005509151050E94BC0DA70186
:1016A00096010E94010F6B017C01C0924E05D09201
:1016B0004F05E0925005F0925105AC019B0160E0AE
:1016C00070E080E89FE30E94010F4B015C01809273
:1016D000520590925305A0925405B092550560ECC6
:1016E00071E08EEA94E00E94C705C701B6010E942E
:1016F0005907C0920001D0920101E0920201F092DC
:101700000301C0924E05D0924F05E0925005F09231
:1017100051058092520590925305A0925405B092C3
:1017200055058CEB99E1A1E8B0E08093A205909378
:10173000A305A093A405B093A50580E0E82E80E062
:10174000F82E7724739490E8C92ED12C0E941B03A5
:1017500081117092AD048091AD04882309F4E2C038
:101760000E940F03AB01BC018091A9049091AA04CF
:10177000A091AB04B091AC048053984FAF4FBF4FD2
:1017800084179507A607B70708F0CCC00E9405018B
:101790004B015C0168EE71E08EEA94E00E94C7059F
:1017A000C501B4010E9459078091A30294E0899F6A
:1017B000F0011124EA55FD4F80829182A282B3820A
:1017C0008F5F8093A3022091A7043091A8042F5F1C
:1017D0003F4F3093A8042093A70487FD1092A302E3
:1017E0002138310558F0D092A804C092A704809106
:1017F000A6048F5F87FDE6C08093A60420910401B4
:10180000309105014091060150910701C501B401D5
:101810000E94940E20E030E048EC52E40E94BC0D9F
:10182000209108013091090140910A0150910B016A
:101830000E94010F4B015C010091A4021091A502CE
:1018400020E030E0A9010E94560DE80187FF02C0A8
:10185000D0E0C0E020E030E0A901C501B4010E9461
:10186000A20F87FD0CC020E030E04CE052E4C5013F
:10187000B4010E94560D87FF02C0CBE0D0E020E00B
:1018800030E04CE052E4C501B4010E94A20F87FD94
:101890000CC020E030E042E852E4C501B4010E94EF
:1018A000560D87FF02C0CCE0D0E020E030E042E8F7
:1018B00052E4C501B4010E94A20F87FD02C0CDE031
:1018C000D0E00C171D0789F00115110521F060E02B
:1018D000802F0E948B02209721F061E08C2F0E94C4
:1018E0008B02D093A502C093A4026FEF71E08EEA41
:1018F00094E00E94C70522E0B501A4018EEA94E0BD
:101900000E946B068AE192E00E9422061092AD04CA
:101910000E940F036093A9047093AA048093AB0400
:101920009093AC0488E00E946202892B91F40E949B
:10193000050462E671E08EEA94E00E94C7056091BA
:10194000A2057091A3058091A4059091A5050E9420
:10195000350682ED95E00E948B05892B09F43FC086
:1019600082ED95E00E94A305843609F044C02091E1
:10197000A7043091A8042115310539F18091A604FE
:1019800094E0899FF0011124EA55FD4F4081518177
:10199000628173818F5F8093A60421503109309357
:1019A000A8042093A70487FD1092A60422E082EDEC
:1019B00095E00E946B066CE172E082ED95E00E947A
:1019C000C705D5CF1092A60419CF60E371E082ED70
:1019D00095E00E94C7058EE192E00E942206E11484
:1019E000F10409F4B3CE0E949601882309F4AECE27
:1019F0000E940000ABCE893691F782ED95E00E94FF
:101A00006504609308017093090180930A01909323
:101A10000B0182ED95E00E946504609304017093D0
:101A20000501809306019093070188E292E00E94ED
:101A3000220669E372E08EEA94E00E94C705609195
:101A400008017091090180910A0190910B010E9497
:101A5000590766E472E08EEA94E00E94C70560913F
:101A600004017091050180910601909107010E9487
:101A70005907B5CF82E291E09093D3058093D205C8
:101A80008091A1029091A202825D954071F4E09153
:101A9000E505F091E60590818091E7058095892321
:101AA00080831092A2021092A10208950E94980DC4
:101AB00008F481E00895E89409C097FB3EF49095FE
:101AC0008095709561957F4F8F4F9F4F9923A9F017
:101AD000F92F96E9BB279395F695879577956795A6
:101AE000B795F111F8CFFAF4BB0F11F460FF1BC0EA
:101AF0006F5F7F4F8F4F9F4F16C0882311F096E97D
:101B000011C0772321F09EE8872F762F05C066232A
:101B100071F096E8862F70E060E02AF09A95660FE3
:101B2000771F881FDAF7880F9695879597F908959C
:101B3000990F0008550FAA0BE0E8FEEF16161706DE
:101B4000E807F907C0F012161306E407F50798F046
:101B5000621B730B840B950B39F40A2661F0232B5F
:101B6000242B252B21F408950A2609F4A140A695DB
:101B70008FEF811D811D08950E94CF0D0C94400EA2
:101B80000E94320E38F00E94390E20F0952311F099
:101B90000C94290E0C942F0E11240C94740E0E9498
:101BA000510E70F3959FC1F3950F50E0551F629F42
:101BB000F001729FBB27F00DB11D639FAA27F00DA6
:101BC000B11DAA1F649F6627B00DA11D661F829FCD
:101BD0002227B00DA11D621F739FB00DA11D621FB2
:101BE000839FA00D611D221F749F3327A00D611DCF
:101BF000231F849F600D211D822F762F6A2F1124B1
:101C00009F5750409AF0F1F088234AF0EE0FFF1FE3
:101C1000BB1F661F771F881F91505040A9F79E3F3A
:101C2000510580F00C94290E0C94740E5F3FE4F380
:101C3000983ED4F3869577956795B795F795E79590
:101C40009F5FC1F7FE2B880F911D9695879597F999
:101C5000089597F99F6780E870E060E008959FEF2E
:101C600080EC089500240A94161617061806090633
:101C7000089500240A941216130614060506089502
:101C8000092E0394000C11F4882352F0BB0F40F48A
:101C9000BF2B11F460FF04C06F5F7F4F8F4F9F4FCA
:101CA000089557FD9058440F551F59F05F3F71F04C
:101CB0004795880F97FB991F61F09F3F79F08795B3
:101CC0000895121613061406551FF2CF4695F1DF3C
:101CD00008C0161617061806991FF1CF86957105CC
:101CE000610508940895E894BB2766277727CB0100
:101CF00097F908950E94850EA59F900DB49F900DB1
:101D0000A49F800D911D11240895A29FB001B39F3F
:101D1000C001A39F700D811D1124911DB29F700DF4
:101D2000811D1124911D08955058BB27AA270E9498
:101D3000AC0E0C94400E0E94320E38F00E94390E08
:101D400020F039F49F3F19F426F40C942F0E0EF472
:101D5000E095E7FB0C94290EE92F0E94510E58F3F1
:101D6000BA17620773078407950720F079F4A6F580
:101D70000C94730E0EF4E0950B2EBA2FA02D0B01D0
:101D8000B90190010C01CA01A0011124FF27591BC0
:101D900099F0593F50F4503E68F11A16F040A22FC6
:101DA000232F342F4427585FF3CF46953795279537
:101DB000A795F0405395C9F77EF41F16BA0B620B36
:101DC000730B840BBAF09150A1F0FF0FBB1F661F7D
:101DD000771F881FC2F70EC0BA0F621F731F841FC0
:101DE00048F4879577956795B795F7959E3F08F0E6
:101DF000B0CF9395880F08F09927EE0F97958795A8
:101E000008950E94150F0C94400E0E94390E58F050
:101E10000E94320E40F029F45F3F29F00C94290E05
:101E200051110C94740E0C942F0E0E94510E68F3F5
:101E30009923B1F3552391F3951B550BBB27AA2783
:101E400062177307840738F09F5F5F4F220F331FBD
:101E5000441FAA1FA9F335D00E2E3AF0E0E832D085
:101E600091505040E695001CCAF72BD0FE2F29D088
:101E7000660F771F881FBB1F261737074807AB075A
:101E8000B0E809F0BB0B802DBF01FF2793585F4FCF
:101E90003AF09E3F510578F00C94290E0C94740E84
:101EA0005F3FE4F3983ED4F3869577956795B795B1
:101EB000F7959F5FC9F7880F911D9695879597F9BC
:101EC0000895E1E0660F771F881FBB1F6217730735
:101ED0008407BA0720F0621B730B840BBA0BEE1F4A
:101EE00088F7E09508950E94590E88F09F5798F062
:101EF000B92F9927B751B0F0E1F0660F771F881F0F
:101F0000991F1AF0BA95C9F714C0B13091F00E9428
:101F1000730EB1E008950C94730E672F782F882705
:101F2000B85F39F0B93FCCF3869577956795B3954F
:101F3000D9F73EF490958095709561957F4F8F4FBE
:101F40009F4F08950E94980D08F48FEF08950E9406
:101F5000980D880B990B089597FB072E16F40094A3
:101F600007D077FD09D00E94E20F07FC05D03EF4B0
:101F7000909581959F4F0895709561957F4F089535
:101F8000A1E21A2EAA1BBB1BFD010DC0AA1FBB1F7D
:101F9000EE1FFF1FA217B307E407F50720F0A21BEF
:101FA000B30BE40BF50B661F771F881F991F1A945C
:101FB00069F760957095809590959B01AC01BD0186
:101FC000CF010895AA1BBB1B51E107C0AA1FBB1F6D
:101FD000A617B70710F0A61BB70B881F991F5A95B5
:101FE000A9F780959095BC01CD010895EE0FFF1FD4
:101FF0000590F491E02D099410E0C2E6D0E004C011
:10200000FE010E94F60F2196C336D107C9F7F89456
:02201000FFCF00
:102012005ADB0C470000A0400000704100000000A5
:10202200CC012C01590119028A0168017C010000CE
:1020320000002F052C01C4052E058B05A3051605EE
:102042000D0A006E616E00696E66006F7666005260
:10205200656D6F7665207765696768747320746F44
:10206200207461726520616E6420707265737320E2
:1020720074005461726520636F6D706C6574652EB7
:102082002054617265206F66667365743A20005051
:102092006C616365206B6E6F776E206D6173732068
:1020A200616E6420656E7465722069747320776551
:1020B2006967687420696E206772616D733A2000E7
:1020C2004B6E6F776E206D6173732069733A2000D7
:1020D2004E65772063616C6962726174696F6E200C
:1020E20076616C756520686173206265656E207328
:1020F200657420746F3A20004C6F61645F63656C95
:102102006C206F75747075742076616C3A20005281
:10211200656D61696E696E672067617320706572B3
:1021220063656E746167653A200025002C00446186
:1021320074612073656E7400496E707574207061ED
:1021420072616D65746572730047617320776569AA
:102152006768743A2000456D707479207765696705
:0621620068743A20000041
:00000001FF
