:100000000C9462000C948A000C948A000C948A0070
:100010000C948A000C948A000C948A000C948A0038
:100020000C948A000C948A000C948A000C948A0028
:100030000C948A000C948A000C948A000C948A0018
:100040000C94D8070C948A000C94A6070C94800793
:100050000C948A000C948A000C948A000C948A00F8
:100060000C948A000C948A000000000023002600F3
:10007000290000000008000201000003040700003E
:1000800000000000000000000000250028002B00F8
:1000900000000000240027002A00040404040404D3
:1000A0000404020202020202030303030303010227
:1000B00004081020408001020408102001020408F6
:1000C0001020220811241FBECFEFD8E0DEBFCDBF25
:1000D00025E0AAE9B4E001C01D92AC3CB207E1F70B
:1000E00014E0A0E0B1E0ECE6FBE102C005900D9267
:1000F000AA39B107D9F710E0C2E6D0E004C02197D1
:10010000FE010E94AE0DC136D107C9F70E94C60894
:100110000C94B40D0C9400004F925F926F927F92FA
:100120008F929F92AF92BF92CF92DF92EF92FF9207
:100130000F931F934091BE055091BF054F5F5F4FD6
:1001400060E0C12CD12C760188248A94982CA82CAC
:10015000B12C80E090E0DC01262F30E042175307FD
:100160008CF1220F331F220F331FF901EB5BFA4F83
:100170004384548465847684481459046A047B0457
:1001800024F483849484A584B684F901EB5BFA4F4C
:100190004384548465847684C414D504E604F70447
:1001A00024F4C384D484E584F6842B5B3A4FF901AC
:1001B0000385148525853685800F911FA21FB31FE7
:1001C0006F5FCACF88199909AA09BB09BC01CD0183
:1001D0006C197D098E099F092091AC0504C0959585
:1001E0008795779567952A95D2F71F910F91FF9084
:1001F000EF90DF90CF90BF90AF909F908F907F90C7
:100200006F905F904F9008950F931F930E948C0002
:100210006093C0057093C1058093C2059093C30598
:1002200000919C0510919D0520919E0530919F05A0
:10023000601B710B820B930B0E94270B20914C05C6
:1002400030914D0540914E0550914F050E94860B0F
:100250001F910F910895AF92BF92CF92DF92EF92CC
:10026000FF920F931F93CF93DF936C017B018B0160
:10027000040F151FEB015E01AE18BF08C017D107B0
:1002800059F06991D601ED91FC910190F081E02D3A
:10029000C6010995892B79F7C501DF91CF911F918F
:1002A0000F91FF90EF90DF90CF90BF90AF900895A7
:1002B000FC01538D448D252F30E0842F90E0821B6C
:1002C000930B541710F0CF96089501970895FC01F1
:1002D000918D828D981761F0A28DAE0FBF2FB11D49
:1002E0005D968C91928D9F5F9F73928F90E00895A1
:1002F0008FEF9FEF0895FC01918D828D981731F05B
:10030000828DE80FF11D858D90E008958FEF9FEFAE
:100310000895FC01918D228D892F90E0805C9F4F84
:10032000821B91098F739927089588EA94E00E94AF
:10033000890121E0892B09F420E0822F089580E0D3
:1003400090E0892B29F00E94950181110C94000006
:100350000895FC01A48DA80FB92FB11DA35ABF4F5A
:100360002C91848D90E001968F739927848FA689B4
:10037000B7892C93A089B1898C91837080648C9308
:10038000938D848D981306C00288F389E02D8081B7
:100390008F7D80830895EF92FF920F931F93CF93E9
:1003A000DF93EC0181E0888F9B8D8C8D98131AC0B0
:1003B000E889F989808185FF15C09FB7F894EE8997
:1003C000FF896083E889F9898081837080648083F4
:1003D0009FBF81E090E0DF91CF911F910F91FF903F
:1003E000EF900895F62E0B8D10E00F5F1F4F0F73E7
:1003F0001127E02E8C8D8E110CC00FB607FCFACFA2
:10040000E889F989808185FFF5CFCE010E94A90195
:10041000F1CFEB8DEC0FFD2FF11DE35AFF4FF08272
:100420009FB7F8940B8FEA89FB8980818062CFCFD8
:10043000CF93DF93EC01888D8823B9F0AA89BB891B
:10044000E889F9898C9185FD03C0808186FD0DC006
:100450000FB607FCF7CF8C9185FFF2CF808185FF27
:10046000EDCFCE010E94A901E9CFDF91CF91089590
:10047000833081F028F4813099F08230A9F008951A
:100480008730A9F08830C9F08430B1F480918000C1
:100490008F7D03C0809180008F77809380000895C6
:1004A00084B58F7784BD089584B58F7DFBCF80910F
:1004B000B0008F778093B00008958091B0008F7D59
:1004C000F9CFCF93DF93282F30E0F901EE58FF4F9B
:1004D0008491F901E255FF4FD491F901E656FF4F9F
:1004E000C491CC23A1F081110E943802EC2FF0E0DE
:1004F000EE0FFF1FE859FF4FA591B491EC91ED234A
:1005000081E090E009F480E0DF91CF91089580E0F0
:1005100090E0FACF1F93CF93DF93282F30E0F901BB
:10052000EE58FF4F8491F901E255FF4FD491F90144
:10053000E656FF4FC491CC23A9F0162F81110E94DB
:100540003802EC2FF0E0EE0FFF1FEA57FF4FA591A6
:10055000B4918FB7F894EC91111108C0D095DE23B7
:10056000DC938FBFDF91CF911F910895DE2BF8CFE1
:100570003FB7F89480919F049091A004A091A104AA
:10058000B091A20426B5A89B05C02F3F19F0019693
:10059000A11DB11D3FBFBA2FA92F982F8827BC01DD
:1005A000CD01620F711D811D911D42E0660F771F05
:1005B000881F991F4A95D1F708952FB7F894609135
:1005C0009B0470919C0480919D0490919E042FBF88
:1005D0000895CF92DF92EF92FF92CF9380914605DC
:1005E0000E9461028111C6C00E94B802C090A2059B
:1005F000D090A305E090A405F090A5056C197D09A5
:100600008E099F096093A6057093A7058093A8059E
:100610009093A9050E94B8026093A2057093A30568
:100620008093A4059093A5051092B805C0E0C12C55
:10063000D12C76018091470590E04796C81719069E
:1006400009F0BCF461E0809145050E948A0260E0F7
:10065000809145050E948A02C83148F48091460580
:100660000E946102CC0CDD1CEE1CFF1CC82ACF5F6F
:10067000E1CF80E8E826C114D104E10491E0F90655
:1006800018F021E02093C4052091CA05222361F0CF
:100690004FEF5FEF6FEF70E0DB01CA018C199D092E
:1006A000AE09BF096C017D012091A0053091A10523
:1006B0004091BE055091BF054F5F5F4F241735072E
:1006C000D9F51092A1051092A005C114D104E1043E
:1006D000F104F1F02091B8052F5F2093B805E09167
:1006E000A005F091A105EE0FFF1FEE0FFF1FEB5BC2
:1006F000FA4FC386D486E586F6868091AE058823B8
:1007000039F08091AB058231F0F48F5F8093AB05B7
:100710000E94DD026093C5057093C6058093C705EE
:100720009093C8051092C9058091B805CF91FF90AC
:10073000EF90DF90CF9008952F5F3F4F3093A1054A
:100740002093A005C2CF0E948C0060939C057093FB
:100750009D0580939E0590939F051092AB05109286
:10076000AE0581E08093B9058091B8058F5F8093D5
:10077000B805CECF0E94DD02C090C505D090C60559
:10078000E090C705F090C8056C197D098E099F0996
:10079000653671058105910518F081E08093C905E2
:1007A0001092B805C1CF0F931F930E94DD02609392
:1007B000B0047093B1048093B2049093B30488EAB8
:1007C00094E00E947B0197FF1DC00E94DD02009112
:1007D000B0041091B1042091B2043091B304601BB5
:1007E000710B820B930B0091AC041091AD0420911E
:1007F000AE043091AF046017710782079307F8F2D7
:100800008FEF9FEF1F910F9108958F929F92AF925C
:10081000BF92CF92DF92EF92FF92CF93DF930E942D
:10082000D303FC0197FD88C08D32910509F04CC0BF
:10083000812C912C80E8A82E8FE3B82EC12CD12CCE
:100840007601C0E0D0E0E130F10559F1ED32F1057B
:1008500009F447C0EE32F10509F445C0CF01C09755
:100860000A97F8F4AAE0B0E0A70196010E945A0C9A
:100870006F01FF0FEE08FF08C60ED71EE81EF91E17
:1008800080E3C81AD108E108F108CC2351F02DEC1F
:100890003CEC4CEC5DE3C501B4010E94860B4B01BE
:1008A0005C0188EA94E00E9467010E94D303FC0186
:1008B000C0970A9740F2EE32F105B9F4CC2319F251
:1008C000CD2FD11118C025C0C0970A9708F4B0CF1A
:1008D000EE32F10509F4ACCF88EA94E00E9467019A
:1008E0009ECFD1E0DECFC1E0DCCFE130F10509F4ED
:1008F000AACFDD2341F0F094E094D094C094C11CC1
:10090000D11CE11CF11CC701B6010E94270BCC23AE
:1009100041F0C701B6010E94270BA50194010E9476
:10092000860BDF91CF91FF90EF90DF90CF90BF903B
:10093000AF909F908F90089560E070E0CB01F1CF71
:10094000EF92FF920F931F93CF93DF937C018C0163
:10095000D0E0C0E0CE010E94440CF80181938F01E9
:100960002196C430D105B1F7C701DF91CF911F9116
:100970000F91FF90EF900895DF92EF92FF920F9307
:100980001F93CF93DF937C018C01D0E0C0E0F8018E
:10099000D1908F01CE010E94440CD81621F06D2D0C
:1009A000CE010E944C0C2196C430D10581F7C701BD
:1009B000DF91CF911F910F91FF90EF90DF900895FD
:1009C000FC0101900020E9F73197AF01481B590B5A
:1009D000BC0188EA94E00C942B018F929F92AF9215
:1009E000BF920F931F93CF93DF93CDB7DEB7A1973D
:1009F0000FB6F894DEBF0FBECDBF19A2423008F487
:100A00004AE08E010F5D1F4F842E912CB12CA12C3A
:100A1000A50194010E948C0DE62FB901CA01EA30AC
:100A2000F4F4E05DD801EE938D01232B242B252BCC
:100A300079F790E080E0109719F0CD010E94E00472
:100A4000A1960FB6F894DEBF0FBECDBFDF91CF9158
:100A50001F910F91BF90AF909F908F900895E95C88
:100A6000E1CFCF92DF92EF92FF92CF93DF936B01B2
:100A70007C016DE288EA94E00E94CB01EC016627DC
:100A80007727CB016C197D098E099F094AE00E94E6
:100A9000ED048C0F9D1FDF91CF91FF90EF90DF90C1
:100AA000CF900895CF93DF930E94E004EC0182E1A0
:100AB00091E00E94E0048C0F9D1FDF91CF9108957B
:100AC0000C94E004CF93DF934AE060E070E0CB0148
:100AD0000E94ED04EC0182E191E00E94E0048C0FA1
:100AE0009D1FDF91CF9108954AE060E070E0CB0157
:100AF0000C94ED044F925F926F927F928F929F922F
:100B0000AF92BF92CF92DF92EF92FF920F931F931B
:100B1000CF936B017C01742EAC019B010E94870D69
:100B2000882399F085E191E0CF911F910F91FF907B
:100B3000EF90DF90CF90BF90AF909F908F907F907D
:100B40006F905F904F900C94E00446015701E89439
:100B5000B7F82FEF3FEF4FE75FE7C501B4010E9401
:100B6000870D81110DC02FEF3FEF4FE75FE7C50104
:100B7000B4010E94200B18161CF489E191E0D4CF37
:100B80002FEF3FEF4FE75FE4C701B6010E94820DF0
:100B900018161CF48DE191E0C7CF2FEF3FEF4FE720
:100BA0005FECC701B6010E94200B87FDF3CF20E068
:100BB00030E0A901C701B6010E94200B10E000E05F
:100BC00087FF0AC06DE288EA94E00E94CB018C01A5
:100BD000F7FAF094F7F8F094C0E060E070E080E09D
:100BE0009FE37C1641F020E030E040E251E40E94B7
:100BF000E10CCF5FF6CFA70196010E94750C2B0187
:100C00003C010E94530D4B015C014AE00E94ED043F
:100C10007C01E00EF11ECC23C1F1C501B4010E949C
:100C2000250B9B01AC01C301B2010E94740C4B0166
:100C30005C016EE288EA94E00E94CB01E80EF91EA6
:100C4000C15018F120E030E040E251E4C501B401A8
:100C50000E94860B2B013C010E94530D4B01B12CCD
:100C6000A12C4AE0C501B4010E94ED04E80EF91E72
:100C7000C501B4010E94250B9B01AC01C301B20167
:100C80000E94740C4B015C01DBCFC701CF911F9117
:100C90000F91FF90EF90DF90CF90BF90AF909F901B
:100CA0008F907F906F905F904F900895CF93DF93D8
:100CB00042E00E947A05EC0182E191E00E94E004AA
:100CC0008C0F9D1FDF91CF910895CF92DF92EF920D
:100CD000FF920F931F93CF93DF9300D000D0CDB737
:100CE000DEB781E291E00E94520585E291E00E9428
:100CF000520588E391E00E94520587E691E00E9448
:100D0000520581E991E00E94520511E00E94E9023A
:100D100088EA94E00E948901181619069CF488EA72
:100D200094E00E9489011816190664F488EA94E098
:100D30000E946701843731F41093AE051092AB0521
:100D40001092B9058091B9051092B9058823F1F286
:100D500086EC91E00E94520584ED91E00E945205DC
:100D600080E092E00E9452050E94E90288EA94E045
:100D70000E94890118161906BCF70E9405046B0130
:100D80007C0120E030E0A9010E94200B882361F360
:100D900084E492E00E946005C701B6010E945606F5
:100DA0000091BE051091BF050E5F1F4F1092A10567
:100DB0001092A005101611066CF40E94E9028091B1
:100DC00046050E946102892BA9F70E940401015087
:100DD0001109F0CF0E940401209148053091490586
:100DE00040914A0550914B050E94860BA701960140
:100DF0000E94E10C6B017C01C0924805D09249052C
:100E0000E0924A05F0924B05AC019B0160E070E076
:100E100080E89FE30E94E10C60934C0570934D05C0
:100E200080934E0590934F05C982DA82EB82FC8253
:100E300084E592E00E94600569817A818B819C81C2
:100E400042E00E947A058CE792E00E94520580EC15
:100E500092E00E9460050E94740582EE92E00E947A
:100E6000520588EA94E00E94890118161906CCF709
:100E700088EA94E00E9467018937D1F5CE01019696
:100E80000E94BC04CE0101960E94A00488EE92E06C
:100E90000E94600569817A818B819C8142E00E9479
:100EA0007A058FEE92E00E9460050E94620584E25E
:100EB00093E00E94520581E291E00E94520584E392
:100EC00093E00E94520583E693E00E94520581E27E
:100ED00091E00E9452050F900F900F900F90DF91BC
:100EE000CF911F910F91FF90EF90DF90CF900895D9
:100EF0008E3609F0B6CF8AE093E00E945205D7CF34
:100F00001F920F920FB60F9211242F933F934F937E
:100F10005F936F937F938F939F93AF93BF93EF9361
:100F2000FF9388EA94E00E94A901FF91EF91BF919D
:100F3000AF919F918F917F916F915F914F913F9171
:100F40002F910F900FBE0F901F9018951F920F9228
:100F50000FB60F9211242F938F939F93EF93FF93CC
:100F6000E091B804F091B9048081E091BE04F09161
:100F7000BF0482FD1BC090818091C1048F5F8F737D
:100F80002091C204821741F0E091C104F0E0E855DD
:100F9000FB4F958F8093C104FF91EF919F918F91AB
:100FA0002F910F900FBE0F901F9018958081F4CF56
:100FB0001F920F920FB60F9211242F933F938F938E
:100FC0009F93AF93BF9380919B0490919C04A091B9
:100FD0009D04B0919E0430919A0423E0230F2D3795
:100FE00058F50196A11DB11D20939A0480939B048E
:100FF00090939C04A0939D04B0939E0480919F04C1
:101000009091A004A091A104B091A2040196A11D09
:10101000B11D80939F049093A004A093A104B0936A
:10102000A204BF91AF919F918F913F912F910F900B
:101030000FBE0F901F90189526E8230F0296A11D52
:10104000B11DD2CFE8EAF4E01382128288EE93E079
:10105000A0E0B0E084839583A683B78384E091E029
:101060009183808385EC90E09587848784EC90E081
:101070009787868780EC90E0918B808B81EC90E065
:10108000938B828B82EC90E0958B848B86EC90E046
:10109000978B868B118E128E138E148EE5E4F5E0FD
:1010A00080E090E0A0E8BFE383839483A583B683C8
:1010B00087839087A187B28710929C0510929D0527
:1010C00010929E0510929F051092A1051092A00506
:1010D0001092A2051092A3051092A4051092A505E6
:1010E0001092A6051092A7051092A8051092A905C6
:1010F00081E08093AA051092AB0584E08093AC0553
:101100008093AD051092AE051092AF051092B00518
:101110001092B1051092B2051092B3051092B40569
:101120001092B5051092B6051092B7051092B80549
:101130001092B9052CE83AE03093BB052093BA052C
:101140001092BC051092BD0520E130E03093BF0540
:101150002093BE051092C0051092C1051092C205E1
:101160001092C3051092C4051092C5051092C605D1
:101170001092C7051092C8051092C9051092CA05B1
:101180001092CB05818385E080830895CF93DF9310
:1011900000D000D0CDB7DEB7789484B5826084BD2E
:1011A00084B5816084BD85B5826085BD85B581606B
:1011B00085BD80916E00816080936E0010928100E9
:1011C00080918100826080938100809181008160A4
:1011D0008093810080918000816080938000809165
:1011E000B10084608093B1008091B00081608093F1
:1011F000B00080917A00846080937A0080917A00B8
:10120000826080937A0080917A00816080937A0076
:1012100080917A00806880937A001092C100E091FA
:10122000B804F091B90482E08083E091B804F091B1
:10123000B9041082E091B404F091B5041082E091F9
:10124000B604F091B70480E180831092C004E0916D
:10125000BC04F091BD0486E08083E091BA04F09173
:10126000BB04808180618083E091BA04F091BB046B
:10127000808188608083E091BA04F091BB04808112
:1012800080688083E091BA04F091BB0480818F7DF7
:1012900080830E94B8024B015C015AE0C52ED12C1C
:1012A000E12CF12C0E94B802681979098A099B097E
:1012B000683E734081059105A8F321E0C21AD10868
:1012C000E108F10888EE880E83E0981EA11CB11C8D
:1012D000C114D104E104F10429F782E191E00E94F4
:1012E000E0048BEA93E00E9452058091450590E06E
:1012F000FC01E255FF4F249186569F4FFC018491DB
:10130000882399F090E0880F991FFC01E057FF4F68
:10131000A591B491FC01EA57FF4F859194918FB745
:10132000F894EC91E22BEC938FBF8091460590E00E
:10133000FC01E255FF4F249186569F4FFC0184919A
:101340008823C9F090E0880F991FFC01E057FF4FF8
:1013500045915491FC01EA57FF4FA591B4919FB775
:10136000F894FA0180812095822380838C91E22F6A
:10137000E823EC939FBF81E08093470560E0809174
:1013800045050E948A020E94DD026093C5057093A4
:10139000C6058093C7059093C8050E94DD0260369C
:1013A00079408105910518F40E94E902F6CF81E0A9
:1013B0008093AE051092AB051092BC050E94DD0231
:1013C0002091BA053091BB056B017C01C20ED31E82
:1013D000E11CF11C0E94E902182F8091BD058111CA
:1013E0000BC00E94DD02C616D706E806F90620F4F7
:1013F00081E08093BC0502C0123061F71092B905FC
:101400008091BC05811104C08091C905882329F011
:1014100087EB93E00E945205FFCF80E090E0A0E8C8
:10142000BFE38093480590934905A0934A05B09384
:101430004B0580934C0590934D05A0934E05B093BA
:101440004F058CEE93E00E9452050E94E90288232A
:10145000E1F30E94650680E0E82E80E0F82E11E0BE
:101460000E94E90281111093A7048091A7048823A8
:1014700039F10E94DD028090A3049090A404A09012
:10148000A504B090A60486169706A806B906C0F46F
:101490000E9404014B015C0180E094E00E94600521
:1014A000C501B4010E9456061092A7040E94DD02F5
:1014B0006093A3047093A4048093A5049093A6045E
:1014C00088EA94E00E9489011816190664F488EAF3
:1014D00094E00E9467018437E1F41093AE05109206
:1014E000AB051092B9058091B9051092B905882312
:1014F00021F086EC91E00E945205E114F10409F418
:10150000AFCF0E949501882309F4AACF0E94000062
:10151000A7CF823719F40E946506E5CF833619F705
:101520008090480590904905A0904A05B0904B05E1
:1015300081E291E00E94520587E194E00E946005FB
:10154000C501B4010E9456068AE294E00E94520549
:1015500088EA94E00E94890118161906CCF70E94C7
:10156000050469837A838B839C8320E030E0A901A2
:101570000E94200B882361F382E694E00E946005BC
:1015800069817A818B819C810E94560629813A81EA
:101590004B815C81209348053093490540934A056F
:1015A00050934B0560E070E080E89FE30E94E10CFF
:1015B00060934C0570934D0580934E0590934F05B5
:1015C00080EC92E00E9460050E94740582EE92E039
:1015D0000E94520588EA94E00E94890118161906B3
:1015E000CCF788EA94E00E946701893711F5CE01B3
:1015F00001960E94BC04CE0101960E94A00488EED0
:1016000092E00E94600569817A818B819C8142E031
:101610000E947A058FEE92E00E9460050E946205AA
:101620008DE794E00E94520581E291E00E9452050C
:101630005ACF8E3679F68AE093E00E945205F0CFB9
:101640000E94620B08F481E00895E89409C097FBBA
:101650003EF490958095709561957F4F8F4F9F4F89
:101660009923A9F0F92F96E9BB279395F6958795CD
:1016700077956795B795F111F8CFFAF4BB0F11F490
:1016800060FF1BC06F5F7F4F8F4F9F4F16C0882337
:1016900011F096E911C0772321F09EE8872F762F6D
:1016A00005C0662371F096E8862F70E060E02AF0AE
:1016B0009A95660F771F881FDAF7880F969587959A
:1016C00097F90895990F0008550FAA0BE0E8FEEF6F
:1016D00016161706E807F907C0F012161306E407F6
:1016E000F50798F0621B730B840B950B39F40A26EF
:1016F00061F0232B242B252B21F408950A2609F4CD
:10170000A140A6958FEF811D811D08950E94990B20
:101710000C940A0C0E94FC0B38F00E94030C20F081
:10172000952311F00C94F30B0C94F90B11240C94E9
:101730003E0C0E941B0C70F3959FC1F3950F50E077
:10174000551F629FF001729FBB27F00DB11D639F73
:10175000AA27F00DB11DAA1F649F6627B00DA11D19
:10176000661F829F2227B00DA11D621F739FB00DBF
:10177000A11D621F839FA00D611D221F749F33272F
:10178000A00D611D231F849F600D211D822F762FC8
:101790006A2F11249F5750409AF0F1F088234AF0A5
:1017A000EE0FFF1FBB1F661F771F881F9150504011
:1017B000A9F79E3F510580F00C94F30B0C943E0C5E
:1017C0005F3FE4F3983ED4F3869577956795B79598
:1017D000F795E7959F5FC1F7FE2B880F911D9695B2
:1017E000879597F9089597F99F6780E870E060E022
:1017F00008959FEF80EC089500240A9416161706AA
:1018000018060906089500240A94121613061406F1
:1018100005060895092E0394000C11F4882352F054
:10182000BB0F40F4BF2B11F460FF04C06F5F7F4F0C
:101830008F4F9F4F089557FD9058440F551F59F0F3
:101840005F3F71F04795880F97FB991F61F09F3FAD
:1018500079F087950895121613061406551FF2CFD6
:101860004695F1DF08C0161617061806991FF1CF26
:1018700086957105610508940895E894BB2766274D
:101880007727CB0197F90895F999FECF92BD81BDD5
:10189000F89A992780B50895262FF999FECF1FBA97
:1018A00092BD81BD20BD0FB6F894FA9AF99A0FBE89
:1018B000019608950E94650CA59F900DB49F900D10
:1018C000A49F800D911D11240895A29FB001B39F84
:1018D000C001A39F700D811D1124911DB29F700D39
:1018E000811D1124911D08955058BB27AA270E94DD
:1018F0008C0C0C940A0C0E94FC0B38F00E94030C18
:1019000020F039F49F3F19F426F40C94F90B0EF4EF
:10191000E095E7FB0C94F30BE92F0E941B0C58F3A6
:10192000BA17620773078407950720F079F4A6F5C4
:101930000C943D0C0EF4E0950B2EBA2FA02D0B014C
:10194000B90190010C01CA01A0011124FF27591B04
:1019500099F0593F50F4503E68F11A16F040A22F0A
:10196000232F342F4427585FF3CF4695379527957B
:10197000A795F0405395C9F77EF41F16BA0B620B7A
:10198000730B840BBAF09150A1F0FF0FBB1F661FC1
:10199000771F881FC2F70EC0BA0F621F731F841F04
:1019A00048F4879577956795B795F7959E3F08F02A
:1019B000B0CF9395880F08F09927EE0F97958795EC
:1019C00008950E94F50C0C940A0C0E94030C58F028
:1019D0000E94FC0B40F029F45F3F29F00C94F30BBC
:1019E00051110C943E0C0C94F90B0E941B0C68F3E3
:1019F0009923B1F3552391F3951B550BBB27AA27C8
:101A000062177307840738F09F5F5F4F220F331F01
:101A1000441FAA1FA9F335D00E2E3AF0E0E832D0C9
:101A200091505040E695001CCAF72BD0FE2F29D0CC
:101A3000660F771F881FBB1F261737074807AB079E
:101A4000B0E809F0BB0B802DBF01FF2793585F4F13
:101A50003AF09E3F510578F00C94F30B0C943E0C39
:101A60005F3FE4F3983ED4F3869577956795B795F5
:101A7000F7959F5FC9F7880F911D9695879597F900
:101A80000895E1E0660F771F881FBB1F6217730779
:101A90008407BA0720F0621B730B840BBA0BEE1F8E
:101AA00088F7E09508950E94230C88F09F5798F0DE
:101AB000B92F9927B751B0F0E1F0660F771F881F53
:101AC000991F1AF0BA95C9F714C0B13091F00E946D
:101AD0003D0CB1E008950C943D0C672F782F8827BA
:101AE000B85F39F0B93FCCF3869577956795B39594
:101AF000D9F73EF490958095709561957F4F8F4F03
:101B00009F4F08950E94620B08F48FEF08950E9482
:101B1000620B880B990B0895A1E21A2EAA1BBB1B1E
:101B2000FD010DC0AA1FBB1FEE1FFF1FA217B307A9
:101B3000E407F50720F0A21BB30BE40BF50B661FBF
:101B4000771F881F991F1A9469F760957095809583
:101B500090959B01AC01BD01CF010895EE0FFF1FD1
:0C1B60000590F491E02D0994F894FFCF5B
:101B6C0000000000CB012B0158011802890167010C
:101B7C007B010D0A006E616E00696E66006F766601
:101B8C00002A2A2A0053746172742063616C6962A2
:101B9C00726174696F6E3A00506C61636520746891
:101BAC0065206C6F61642063656C6C20616E2061D4
:101BBC00206C6576656C20737461626C652073753E
:101BCC0072666163652E0052656D6F766520616E7D
:101BDC0079206C6F6164206170706C69656420742D
:101BEC006F20746865206C6F61642063656C6C2E6B
:101BFC000053656E64202774272066726F6D207306
:101C0C00657269616C206D6F6E69746F7220746F90
:101C1C0020736574207468652074617265206F662A
:101C2C00667365742E005461726520636F6D706C01
:101C3C00657465004E6F772C20706C61636520793C
:101C4C006F7572206B6E6F776E206D617373206F82
:101C5C006E20746865206C6F616463656C6C2E001B
:101C6C005468656E2073656E6420746865207765B2
:101C7C0069676874206F662074686973206D61737E
:101C8C00732028692E652E203130302E30292066A5
:101C9C00726F6D2073657269616C206D6F6E697403
:101CAC006F722E004B6E6F776E206D6173732069AF
:101CBC00733A20004E65772063616C6962726174BF
:101CCC00696F6E2076616C75652068617320626542
:101CDC00656E2073657420746F3A20002C20757328
:101CEC006520746869732061732063616C6962722A
:101CFC006174696F6E2076616C7565202863616C08
:101D0C00466163746F722920696E20796F75722039
:101D1C0070726F6A65637420736B657463682E00F0
:101D2C005361766520746869732076616C756520E3
:101D3C00746F20454550524F4D206164726573732A
:101D4C0020003F20792F6E0056616C7565200020B5
:101D5C00736176656420746F20454550524F4D2059
:101D6C00616464726573733A200056616C7565200A
:101D7C006E6F7420736176656420746F20454550D6
:101D8C00524F4D00456E642063616C6962726174E0
:101D9C00696F6E00546F2072652D63616C6962729D
:101DAC006174652C2073656E64202772272066721F
:101DBC006F6D2073657269616C206D6F6E69746FE5
:101DCC00722E00466F72206D616E75616C206564B9
:101DDC006974206F66207468652063616C69627237
:101DEC006174696F6E2076616C75652C2073656EFD
:101DFC0064202763272066726F6D2073657269619A
:101E0C006C206D6F6E69746F722E005374617274F6
:101E1C00696E672E2E2E0054696D656F75742C20BB
:101E2C00636865636B204D43553E4858373131200C
:101E3C00776972696E6720616E642070696E2064C8
:101E4C00657369676E6174696F6E73005374617248
:101E5C0074757020697320636F6D706C65746500A8
:101E6C004C6F61645F63656C6C206F757470757416
:101E7C002076616C3A200043757272656E74207620
:101E8C00616C75652069733A20004E6F772C207356
:101E9C00656E6420746865206E65772076616C755C
:101EAC00652066726F6D2073657269616C206D6F51
:101EBC006E69746F722C20692E652E203639362E81
:101ECC0030004E65772063616C6962726174696F72
:101EDC006E2076616C75652069733A2000456E64DE
:101EEC00206368616E67652063616C6962726174FE
:0A1EFC00696F6E2076616C75650059
:00000001FF
